{
  "_format": "hh-sol-artifact-1",
  "contractName": "RevenueClaim",
  "sourceName": "contracts/RevenueClaim.sol",
  "abi": [
    {
      "inputs": [],
      "stateMutability": "nonpayable",
      "type": "constructor"
    },
    {
      "anonymous": false,
      "inputs": [
        {
          "indexed": true,
          "internalType": "address",
          "name": "claimer",
          "type": "address"
        },
        {
          "indexed": true,
          "internalType": "uint256",
          "name": "NFTId",
          "type": "uint256"
        },
        {
          "indexed": true,
          "internalType": "uint256",
          "name": "amount",
          "type": "uint256"
        }
      ],
      "name": "Claimed",
      "type": "event"
    },
    {
      "inputs": [
        {
          "internalType": "uint256",
          "name": "tokenId",
          "type": "uint256"
        },
        {
          "internalType": "uint256",
          "name": "amount",
          "type": "uint256"
        },
        {
          "internalType": "bytes32[]",
          "name": "merkleProof",
          "type": "bytes32[]"
        }
      ],
      "name": "claim",
      "outputs": [
        {
          "internalType": "bool",
          "name": "",
          "type": "bool"
        }
      ],
      "stateMutability": "nonpayable",
      "type": "function"
    },
    {
      "inputs": [
        {
          "internalType": "address",
          "name": "revenueToken",
          "type": "address"
        },
        {
          "internalType": "address",
          "name": "rewardToken",
          "type": "address"
        },
        {
          "internalType": "uint256",
          "name": "amount",
          "type": "uint256"
        },
        {
          "internalType": "bytes32",
          "name": "root_",
          "type": "bytes32"
        }
      ],
      "name": "initialize",
      "outputs": [],
      "stateMutability": "nonpayable",
      "type": "function"
    }
  ],
  "bytecode": "0x608060405234801561001057600080fd5b506001600081905580546001600160a01b03191633179055610d52806100376000396000f3fe608060405234801561001057600080fd5b50600436106100365760003560e01c8063ae0b51df1461003b578063d2d5f5b114610062575b600080fd5b61004e610049366004610b1b565b610077565b604051901515815260200160405180910390f35b610075610070366004610c06565b610320565b005b6000600260005414156100d15760405162461bcd60e51b815260206004820152601f60248201527f5265656e7472616e637947756172643a207265656e7472616e742063616c6c0060448201526064015b60405180910390fd5b60026000556003546040516331a9108f60e11b81526004810186905233916001600160a01b031690636352211e9060240160206040518083038186803b15801561011a57600080fd5b505afa15801561012e573d6000803e3d6000fd5b505050506040513d601f19601f820116820180604052508101906101529190610c4c565b6001600160a01b0316146101a85760405162461bcd60e51b815260206004820181905260248201527f796f757220617265206e6f7420746865206f776e6572206f662045524337323160448201526064016100c8565b33600090815260056020908152604080832087845290915290205460ff16156102135760405162461bcd60e51b815260206004820152601760248201527f72657761726420616c72726561647920636c61696d656400000000000000000060448201526064016100c8565b61021f33858585610511565b61026b5760405162461bcd60e51b815260206004820152601160248201527f6d65726b6c652070726f6f66206661696c00000000000000000000000000000060448201526064016100c8565b6102753384610572565b6102c15760405162461bcd60e51b815260206004820152601460248201527f726577617264207472616e73666572206661696c00000000000000000000000060448201526064016100c8565b336000818152600560209081526040808320888452909152808220805460ff19166001179055518592879290917f987d620f307ff6b94d58743cb7a7509f24071586a77759b77c2d4e29f75a2f9a9190a4506001806000559392505050565b6001546001600160a01b031633146103865760405162461bcd60e51b8152602060048201526024808201527f6d73672e73656e646572206974206973206e6f742074686520696e697469616c60448201526334bd32b960e11b60648201526084016100c8565b8060001a60f81b7fff00000000000000000000000000000000000000000000000000000000000000166103fb5760405162461bcd60e51b815260206004820152600a60248201527f656d70747920726f6f740000000000000000000000000000000000000000000060448201526064016100c8565b6001600160a01b0383166104515760405162461bcd60e51b815260206004820152601c60248201527f72657761726420746f6b656e2073686f756c64206e6f7420626520300000000060448201526064016100c8565b600082116104a15760405162461bcd60e51b815260206004820152601f60248201527f616d6f756e742073686f756c642062652067726561746572207468616e20300060448201526064016100c8565b600280546001600160a01b0380861673ffffffffffffffffffffffffffffffffffffffff1992831617909255600380549287169290911691909117905560048190556104ed338361063a565b50506001805473ffffffffffffffffffffffffffffffffffffffff19169055505050565b6040516bffffffffffffffffffffffff19606086901b1660208201526034810184905260548101839052600090819060740160405160208183030381529060405280519060200120905061056883600454836106fa565b9695505050505050565b60006001600160a01b0383166105ca5760405162461bcd60e51b815260206004820152601560248201527f6d7573742062652076616c69642061646472657373000000000000000000000060448201526064016100c8565b6000821161061a5760405162461bcd60e51b815260206004820152601760248201527f796f75206d7573742073656e6420736f6d657468696e6700000000000000000060448201526064016100c8565b600254610631906001600160a01b03168484610712565b50600192915050565b60006001600160a01b0383166106925760405162461bcd60e51b815260206004820152601560248201527f6d7573742062652076616c69642061646472657373000000000000000000000060448201526064016100c8565b600082116106e25760405162461bcd60e51b815260206004820152601760248201527f796f75206d7573742073656e6420736f6d657468696e6700000000000000000060448201526064016100c8565b600254610631906001600160a01b03168430856107a7565b60008261070785846107e5565b1490505b9392505050565b6040516001600160a01b0383166024820152604481018290526107a290849063a9059cbb60e01b906064015b60408051601f198184030181529190526020810180517bffffffffffffffffffffffffffffffffffffffffffffffffffffffff167fffffffff0000000000000000000000000000000000000000000000000000000090931692909217909152610891565b505050565b6040516001600160a01b03808516602483015283166044820152606481018290526107df9085906323b872dd60e01b9060840161073e565b50505050565b600081815b845181101561088957600085828151811061080757610807610c69565b60200260200101519050808311610849576040805160208101859052908101829052606001604051602081830303815290604052805190602001209250610876565b60408051602081018390529081018490526060016040516020818303038152906040528051906020012092505b508061088181610c7f565b9150506107ea565b509392505050565b60006108e6826040518060400160405280602081526020017f5361666545524332303a206c6f772d6c6576656c2063616c6c206661696c6564815250856001600160a01b03166109769092919063ffffffff16565b8051909150156107a257808060200190518101906109049190610ca8565b6107a25760405162461bcd60e51b815260206004820152602a60248201527f5361666545524332303a204552433230206f7065726174696f6e20646964206e60448201527f6f7420737563636565640000000000000000000000000000000000000000000060648201526084016100c8565b6060610985848460008561098d565b949350505050565b606082471015610a055760405162461bcd60e51b815260206004820152602660248201527f416464726573733a20696e73756666696369656e742062616c616e636520666f60448201527f722063616c6c000000000000000000000000000000000000000000000000000060648201526084016100c8565b843b610a535760405162461bcd60e51b815260206004820152601d60248201527f416464726573733a2063616c6c20746f206e6f6e2d636f6e747261637400000060448201526064016100c8565b600080866001600160a01b03168587604051610a6f9190610cf6565b60006040518083038185875af1925050503d8060008114610aac576040519150601f19603f3d011682016040523d82523d6000602084013e610ab1565b606091505b5091509150610ac1828286610acc565b979650505050505050565b60608315610adb57508161070b565b825115610aeb5782518084602001fd5b8160405162461bcd60e51b81526004016100c89190610d12565b634e487b7160e01b600052604160045260246000fd5b600080600060608486031215610b3057600080fd5b833592506020808501359250604085013567ffffffffffffffff80821115610b5757600080fd5b818701915087601f830112610b6b57600080fd5b813581811115610b7d57610b7d610b05565b8060051b604051601f19603f83011681018181108582111715610ba257610ba2610b05565b60405291825284820192508381018501918a831115610bc057600080fd5b938501935b82851015610bde57843584529385019392850192610bc5565b8096505050505050509250925092565b6001600160a01b0381168114610c0357600080fd5b50565b60008060008060808587031215610c1c57600080fd5b8435610c2781610bee565b93506020850135610c3781610bee565b93969395505050506040820135916060013590565b600060208284031215610c5e57600080fd5b815161070b81610bee565b634e487b7160e01b600052603260045260246000fd5b6000600019821415610ca157634e487b7160e01b600052601160045260246000fd5b5060010190565b600060208284031215610cba57600080fd5b8151801515811461070b57600080fd5b60005b83811015610ce5578181015183820152602001610ccd565b838111156107df5750506000910152565b60008251610d08818460208701610cca565b9190910192915050565b6020815260008251806020840152610d31816040850160208701610cca565b601f01601f1916919091016040019291505056fea164736f6c6343000809000a",
  "linkReferences": {},
  "deployedLinkReferences": {}
}