{
  "_format": "hh-sol-artifact-1",
  "contractName": "Faucet",
  "sourceName": "contracts/Faucet.sol",
  "abi": [
    {
      "inputs": [],
      "stateMutability": "nonpayable",
      "type": "constructor"
    },
    {
      "anonymous": false,
      "inputs": [
        {
          "indexed": true,
          "internalType": "address",
          "name": "sender",
          "type": "address"
        },
        {
          "indexed": true,
          "internalType": "address",
          "name": "token",
          "type": "address"
        },
        {
          "indexed": true,
          "internalType": "uint256",
          "name": "amount",
          "type": "uint256"
        }
      ],
      "name": "Claimed",
      "type": "event"
    },
    {
      "inputs": [
        {
          "internalType": "address",
          "name": "token",
          "type": "address"
        },
        {
          "internalType": "uint256",
          "name": "amount",
          "type": "uint256"
        }
      ],
      "name": "claim",
      "outputs": [],
      "stateMutability": "nonpayable",
      "type": "function"
    }
  ],
  "bytecode": "0x608060405234801561001057600080fd5b50610617806100206000396000f3fe608060405234801561001057600080fd5b506004361061002b5760003560e01c8063aad3ec9614610030575b600080fd5b61004361003e36600461050b565b610045565b005b3360009081526020819052604090205461271090610064908390610543565b106100b65760405162461bcd60e51b815260206004820152601a60248201527f657863656564206d617820616d6f756e7420746f20636c61696d00000000000060448201526064015b60405180910390fd5b6100c182338361016d565b61010d5760405162461bcd60e51b815260206004820152600c60248201527f6f7574206f662066756e6473000000000000000000000000000000000000000060448201526064016100ad565b336000908152602081905260408120805483929061012c908490610543565b909155505060405181906001600160a01b0384169033907ff7a40077ff7a04c7e61f6f26fb13774259ddf1b6bce9ecf26a8276cdd399268390600090a45050565b60006001600160a01b0383166101c55760405162461bcd60e51b815260206004820152601560248201527f6d7573742062652076616c69642061646472657373000000000000000000000060448201526064016100ad565b600082116102155760405162461bcd60e51b815260206004820152601760248201527f796f75206d7573742073656e6420736f6d657468696e6700000000000000000060448201526064016100ad565b61022084848461022b565b5060015b9392505050565b604080516001600160a01b038416602482015260448082018490528251808303909101815260649091019091526020810180517bffffffffffffffffffffffffffffffffffffffffffffffffffffffff1663a9059cbb60e01b179052610292908490610297565b505050565b60006102ec826040518060400160405280602081526020017f5361666545524332303a206c6f772d6c6576656c2063616c6c206661696c6564815250856001600160a01b031661037c9092919063ffffffff16565b805190915015610292578080602001905181019061030a9190610569565b6102925760405162461bcd60e51b815260206004820152602a60248201527f5361666545524332303a204552433230206f7065726174696f6e20646964206e60448201527f6f7420737563636565640000000000000000000000000000000000000000000060648201526084016100ad565b606061038b8484600085610393565b949350505050565b60608247101561040b5760405162461bcd60e51b815260206004820152602660248201527f416464726573733a20696e73756666696369656e742062616c616e636520666f60448201527f722063616c6c000000000000000000000000000000000000000000000000000060648201526084016100ad565b843b6104595760405162461bcd60e51b815260206004820152601d60248201527f416464726573733a2063616c6c20746f206e6f6e2d636f6e747261637400000060448201526064016100ad565b600080866001600160a01b0316858760405161047591906105bb565b60006040518083038185875af1925050503d80600081146104b2576040519150601f19603f3d011682016040523d82523d6000602084013e6104b7565b606091505b50915091506104c78282866104d2565b979650505050505050565b606083156104e1575081610224565b8251156104f15782518084602001fd5b8160405162461bcd60e51b81526004016100ad91906105d7565b6000806040838503121561051e57600080fd5b82356001600160a01b038116811461053557600080fd5b946020939093013593505050565b6000821982111561056457634e487b7160e01b600052601160045260246000fd5b500190565b60006020828403121561057b57600080fd5b8151801515811461022457600080fd5b60005b838110156105a657818101518382015260200161058e565b838111156105b5576000848401525b50505050565b600082516105cd81846020870161058b565b9190910192915050565b60208152600082518060208401526105f681604085016020870161058b565b601f01601f1916919091016040019291505056fea164736f6c6343000809000a",
  "linkReferences": {},
  "deployedLinkReferences": {}
}