{
  "_format": "hh-sol-artifact-1",
  "contractName": "StakedShare",
  "sourceName": "contracts/StakedShare.sol",
  "abi": [
    {
      "inputs": [],
      "stateMutability": "nonpayable",
      "type": "constructor"
    },
    {
      "anonymous": false,
      "inputs": [
        {
          "indexed": true,
          "internalType": "address",
          "name": "owner",
          "type": "address"
        },
        {
          "indexed": true,
          "internalType": "address",
          "name": "approved",
          "type": "address"
        },
        {
          "indexed": true,
          "internalType": "uint256",
          "name": "tokenId",
          "type": "uint256"
        }
      ],
      "name": "Approval",
      "type": "event"
    },
    {
      "anonymous": false,
      "inputs": [
        {
          "indexed": true,
          "internalType": "address",
          "name": "owner",
          "type": "address"
        },
        {
          "indexed": true,
          "internalType": "address",
          "name": "operator",
          "type": "address"
        },
        {
          "indexed": false,
          "internalType": "bool",
          "name": "approved",
          "type": "bool"
        }
      ],
      "name": "ApprovalForAll",
      "type": "event"
    },
    {
      "anonymous": false,
      "inputs": [
        {
          "indexed": true,
          "internalType": "address",
          "name": "staker",
          "type": "address"
        },
        {
          "indexed": true,
          "internalType": "uint128",
          "name": "amount",
          "type": "uint128"
        },
        {
          "indexed": true,
          "internalType": "uint256",
          "name": "NFTId",
          "type": "uint256"
        }
      ],
      "name": "IncreaseStaked",
      "type": "event"
    },
    {
      "anonymous": false,
      "inputs": [
        {
          "indexed": true,
          "internalType": "address",
          "name": "staker",
          "type": "address"
        },
        {
          "indexed": true,
          "internalType": "uint64",
          "name": "time",
          "type": "uint64"
        },
        {
          "indexed": true,
          "internalType": "uint256",
          "name": "NFTId",
          "type": "uint256"
        }
      ],
      "name": "IncreaseTime",
      "type": "event"
    },
    {
      "anonymous": false,
      "inputs": [
        {
          "indexed": true,
          "internalType": "address",
          "name": "staker",
          "type": "address"
        },
        {
          "indexed": true,
          "internalType": "uint128",
          "name": "amount",
          "type": "uint128"
        },
        {
          "indexed": false,
          "internalType": "uint128",
          "name": "tax",
          "type": "uint128"
        }
      ],
      "name": "Redeemed",
      "type": "event"
    },
    {
      "anonymous": false,
      "inputs": [
        {
          "indexed": true,
          "internalType": "address",
          "name": "staker",
          "type": "address"
        },
        {
          "indexed": true,
          "internalType": "uint128",
          "name": "amount",
          "type": "uint128"
        },
        {
          "indexed": true,
          "internalType": "uint256",
          "name": "NFTId",
          "type": "uint256"
        }
      ],
      "name": "Staked",
      "type": "event"
    },
    {
      "anonymous": false,
      "inputs": [
        {
          "indexed": true,
          "internalType": "address",
          "name": "from",
          "type": "address"
        },
        {
          "indexed": true,
          "internalType": "address",
          "name": "to",
          "type": "address"
        },
        {
          "indexed": true,
          "internalType": "uint256",
          "name": "tokenId",
          "type": "uint256"
        }
      ],
      "name": "Transfer",
      "type": "event"
    },
    {
      "anonymous": false,
      "inputs": [
        {
          "indexed": true,
          "internalType": "address",
          "name": "withdrawer",
          "type": "address"
        },
        {
          "indexed": true,
          "internalType": "uint128",
          "name": "amount",
          "type": "uint128"
        },
        {
          "indexed": true,
          "internalType": "uint256",
          "name": "NFTId",
          "type": "uint256"
        }
      ],
      "name": "Withdrawn",
      "type": "event"
    },
    {
      "inputs": [
        {
          "internalType": "address",
          "name": "to",
          "type": "address"
        },
        {
          "internalType": "uint256",
          "name": "tokenId",
          "type": "uint256"
        }
      ],
      "name": "approve",
      "outputs": [],
      "stateMutability": "nonpayable",
      "type": "function"
    },
    {
      "inputs": [
        {
          "internalType": "address",
          "name": "owner",
          "type": "address"
        }
      ],
      "name": "balanceOf",
      "outputs": [
        {
          "internalType": "uint256",
          "name": "",
          "type": "uint256"
        }
      ],
      "stateMutability": "view",
      "type": "function"
    },
    {
      "inputs": [
        {
          "internalType": "uint256",
          "name": "tokenId",
          "type": "uint256"
        }
      ],
      "name": "getApproved",
      "outputs": [
        {
          "internalType": "address",
          "name": "",
          "type": "address"
        }
      ],
      "stateMutability": "view",
      "type": "function"
    },
    {
      "inputs": [
        {
          "internalType": "uint256",
          "name": "tokenId",
          "type": "uint256"
        },
        {
          "internalType": "uint128",
          "name": "amount",
          "type": "uint128"
        }
      ],
      "name": "increaseStake",
      "outputs": [],
      "stateMutability": "nonpayable",
      "type": "function"
    },
    {
      "inputs": [
        {
          "internalType": "uint256",
          "name": "tokenId",
          "type": "uint256"
        },
        {
          "internalType": "uint128",
          "name": "lock",
          "type": "uint128"
        }
      ],
      "name": "increaseTime",
      "outputs": [],
      "stateMutability": "nonpayable",
      "type": "function"
    },
    {
      "inputs": [
        {
          "internalType": "string",
          "name": "name_",
          "type": "string"
        },
        {
          "internalType": "string",
          "name": "symbol_",
          "type": "string"
        }
      ],
      "name": "initialize",
      "outputs": [],
      "stateMutability": "nonpayable",
      "type": "function"
    },
    {
      "inputs": [
        {
          "internalType": "address",
          "name": "projectToken_",
          "type": "address"
        },
        {
          "internalType": "string",
          "name": "name",
          "type": "string"
        },
        {
          "internalType": "string",
          "name": "symbol",
          "type": "string"
        },
        {
          "internalType": "string",
          "name": "logo_",
          "type": "string"
        }
      ],
      "name": "initialize",
      "outputs": [],
      "stateMutability": "nonpayable",
      "type": "function"
    },
    {
      "inputs": [
        {
          "internalType": "address",
          "name": "owner",
          "type": "address"
        },
        {
          "internalType": "address",
          "name": "operator",
          "type": "address"
        }
      ],
      "name": "isApprovedForAll",
      "outputs": [
        {
          "internalType": "bool",
          "name": "",
          "type": "bool"
        }
      ],
      "stateMutability": "view",
      "type": "function"
    },
    {
      "inputs": [],
      "name": "logo",
      "outputs": [
        {
          "internalType": "string",
          "name": "",
          "type": "string"
        }
      ],
      "stateMutability": "view",
      "type": "function"
    },
    {
      "inputs": [],
      "name": "name",
      "outputs": [
        {
          "internalType": "string",
          "name": "",
          "type": "string"
        }
      ],
      "stateMutability": "view",
      "type": "function"
    },
    {
      "inputs": [
        {
          "internalType": "uint256",
          "name": "tokenId",
          "type": "uint256"
        }
      ],
      "name": "ownerOf",
      "outputs": [
        {
          "internalType": "address",
          "name": "",
          "type": "address"
        }
      ],
      "stateMutability": "view",
      "type": "function"
    },
    {
      "inputs": [],
      "name": "projectToken",
      "outputs": [
        {
          "internalType": "address",
          "name": "",
          "type": "address"
        }
      ],
      "stateMutability": "view",
      "type": "function"
    },
    {
      "inputs": [
        {
          "internalType": "uint256",
          "name": "tokenId",
          "type": "uint256"
        },
        {
          "internalType": "uint128",
          "name": "amount",
          "type": "uint128"
        }
      ],
      "name": "redeem",
      "outputs": [],
      "stateMutability": "nonpayable",
      "type": "function"
    },
    {
      "inputs": [
        {
          "internalType": "uint256",
          "name": "",
          "type": "uint256"
        }
      ],
      "name": "revToken",
      "outputs": [
        {
          "internalType": "uint64",
          "name": "created",
          "type": "uint64"
        },
        {
          "internalType": "uint64",
          "name": "locked",
          "type": "uint64"
        },
        {
          "internalType": "uint128",
          "name": "amount",
          "type": "uint128"
        }
      ],
      "stateMutability": "view",
      "type": "function"
    },
    {
      "inputs": [],
      "name": "rsId",
      "outputs": [
        {
          "internalType": "uint256",
          "name": "",
          "type": "uint256"
        }
      ],
      "stateMutability": "view",
      "type": "function"
    },
    {
      "inputs": [
        {
          "internalType": "uint256",
          "name": "tokenId",
          "type": "uint256"
        }
      ],
      "name": "rsToken",
      "outputs": [
        {
          "internalType": "uint64",
          "name": "",
          "type": "uint64"
        },
        {
          "internalType": "uint64",
          "name": "",
          "type": "uint64"
        },
        {
          "internalType": "uint128",
          "name": "",
          "type": "uint128"
        }
      ],
      "stateMutability": "view",
      "type": "function"
    },
    {
      "inputs": [
        {
          "internalType": "address",
          "name": "from",
          "type": "address"
        },
        {
          "internalType": "address",
          "name": "to",
          "type": "address"
        },
        {
          "internalType": "uint256",
          "name": "tokenId",
          "type": "uint256"
        }
      ],
      "name": "safeTransferFrom",
      "outputs": [],
      "stateMutability": "nonpayable",
      "type": "function"
    },
    {
      "inputs": [
        {
          "internalType": "address",
          "name": "from",
          "type": "address"
        },
        {
          "internalType": "address",
          "name": "to",
          "type": "address"
        },
        {
          "internalType": "uint256",
          "name": "tokenId",
          "type": "uint256"
        },
        {
          "internalType": "bytes",
          "name": "_data",
          "type": "bytes"
        }
      ],
      "name": "safeTransferFrom",
      "outputs": [],
      "stateMutability": "nonpayable",
      "type": "function"
    },
    {
      "inputs": [
        {
          "internalType": "address",
          "name": "operator",
          "type": "address"
        },
        {
          "internalType": "bool",
          "name": "approved",
          "type": "bool"
        }
      ],
      "name": "setApprovalForAll",
      "outputs": [],
      "stateMutability": "nonpayable",
      "type": "function"
    },
    {
      "inputs": [
        {
          "internalType": "uint128",
          "name": "amount",
          "type": "uint128"
        },
        {
          "internalType": "uint128",
          "name": "lock",
          "type": "uint128"
        }
      ],
      "name": "stake",
      "outputs": [],
      "stateMutability": "nonpayable",
      "type": "function"
    },
    {
      "inputs": [
        {
          "internalType": "bytes4",
          "name": "interfaceId",
          "type": "bytes4"
        }
      ],
      "name": "supportsInterface",
      "outputs": [
        {
          "internalType": "bool",
          "name": "",
          "type": "bool"
        }
      ],
      "stateMutability": "view",
      "type": "function"
    },
    {
      "inputs": [],
      "name": "symbol",
      "outputs": [
        {
          "internalType": "string",
          "name": "",
          "type": "string"
        }
      ],
      "stateMutability": "view",
      "type": "function"
    },
    {
      "inputs": [
        {
          "internalType": "uint256",
          "name": "tokenId",
          "type": "uint256"
        }
      ],
      "name": "tokenURI",
      "outputs": [
        {
          "internalType": "string",
          "name": "",
          "type": "string"
        }
      ],
      "stateMutability": "view",
      "type": "function"
    },
    {
      "inputs": [],
      "name": "totalVolumenLoad",
      "outputs": [
        {
          "internalType": "uint256",
          "name": "",
          "type": "uint256"
        }
      ],
      "stateMutability": "view",
      "type": "function"
    },
    {
      "inputs": [
        {
          "internalType": "address",
          "name": "from",
          "type": "address"
        },
        {
          "internalType": "address",
          "name": "to",
          "type": "address"
        },
        {
          "internalType": "uint256",
          "name": "tokenId",
          "type": "uint256"
        }
      ],
      "name": "transferFrom",
      "outputs": [],
      "stateMutability": "nonpayable",
      "type": "function"
    },
    {
      "inputs": [
        {
          "internalType": "uint256",
          "name": "tokenId",
          "type": "uint256"
        }
      ],
      "name": "withdraw",
      "outputs": [],
      "stateMutability": "nonpayable",
      "type": "function"
    }
  ],
  "bytecode": "0x608060405234801561001057600080fd5b506001600755613de1806100256000396000f3fe608060405234801561001057600080fd5b50600436106101ae5760003560e01c80636352211e116100ee578063b702ab1111610097578063e985e9c511610071578063e985e9c5146103d9578063f9c0c958146103ec578063fa796c7a146103ff578063fb7f21eb1461040757600080fd5b8063b702ab111461036b578063b88d4fde146103b3578063c87b56dd146103c657600080fd5b80639b7955c7116100c85780639b7955c71461033c578063a22cb4651461034f578063a604b1011461036257600080fd5b80636352211e1461030057806370a082311461031357806395d89b411461033457600080fd5b80631cd2ba8a1161015b57806342842e0e1161013557806342842e0e146102bf5780634b60ce77146102d25780634cd88b76146102da5780635f1e6f6d146102ed57600080fd5b80631cd2ba8a1461025657806323b872dd146102995780632e1a7d4d146102ac57600080fd5b806307fd87631161018c57806307fd876314610205578063081812fc14610218578063095ea7b31461024357600080fd5b806301ffc9a7146101b357806302f2bb9c146101db57806306fdde03146101f0575b600080fd5b6101c66101c13660046131b0565b61040f565b60405190151581526020015b60405180910390f35b6101ee6101e93660046131e4565b6104a9565b005b6101f8610718565b6040516101d29190613268565b6101ee61021336600461327b565b6107eb565b61022b6102263660046132a5565b610bb2565b6040516001600160a01b0390911681526020016101d2565b6101ee6102513660046132d5565b610c8a565b6102696102643660046132a5565b610de0565b6040805167ffffffffffffffff94851681529390921660208401526001600160801b0316908201526060016101d2565b6101ee6102a73660046132ff565b610f00565b6101ee6102ba3660046132a5565b610fc7565b6101ee6102cd3660046132ff565b61126c565b61022b6112c7565b6101ee6102e83660046133e7565b61131a565b6101ee6102fb36600461344b565b6113ab565b61022b61030e3660046132a5565b6114b2565b6103266103213660046134e4565b611580565b6040519081526020016101d2565b6101f861165b565b6101ee61034a3660046131e4565b6116ab565b6101ee61035d36600461350d565b6119ec565b610326600b5481565b6102696103793660046132a5565b600a6020526000908152604090205467ffffffffffffffff80821691600160401b810490911690600160801b90046001600160801b031683565b6101ee6103c1366004613544565b611a3b565b6101f86103d43660046132a5565b611b09565b6101c66103e73660046135b4565b611c2f565b6101ee6103fa3660046131e4565b611ca1565b610326612073565b6101f86120bd565b60065460009060ff166104575760405162461bcd60e51b815260206004820152601e6024820152600080516020613db583398151915260448201526064015b60405180910390fd5b6001600160e01b031982166380ac58cd60e01b148061048657506001600160e01b03198216635b5e139f60e01b145b806104a157506301ffc9a760e01b6001600160e01b03198316145b90505b919050565b600260075414156104fc5760405162461bcd60e51b815260206004820152601f60248201527f5265656e7472616e637947756172643a207265656e7472616e742063616c6c00604482015260640161044e565b600260075560065460ff166105415760405162461bcd60e51b815260206004820152601e6024820152600080516020613db5833981519152604482015260640161044e565b6000816001600160801b03161161059a5760405162461bcd60e51b815260206004820152601960248201527f796f752073686f756c642073656e6420736f6d657468696e6700000000000000604482015260640161044e565b336105a4836114b2565b6001600160a01b0316146106055760405162461bcd60e51b815260206004820152602260248201527f796f7520617265206e6f7420746865206f776e6572206f662074686520746f6b60448201526132b760f11b606482015260840161044e565b6000828152600a602090815260408083208151606081018352905467ffffffffffffffff8082168352600160401b820416938201849052600160801b90046001600160801b0316918101919091529190610660601e856135f4565b63ffffffff166106709190613620565b905060b467ffffffffffffffff821611156106cd5760405162461bcd60e51b815260206004820181905260248201527f796f752073686f756c64206c6f636b206c657373207468616e20312079656172604482015260640161044e565b67ffffffffffffffff81166020830181905260405185919033907f3190447949925968ba4a4e370b3240f60d8653669bced21c20fc4b2010cea45f90600090a4505060016007555050565b60065460609060ff1661075b5760405162461bcd60e51b815260206004820152601e6024820152600080516020613db5833981519152604482015260640161044e565b600080546107689061364c565b80601f01602080910402602001604051908101604052809291908181526020018280546107949061364c565b80156107e15780601f106107b6576101008083540402835291602001916107e1565b820191906000526020600020905b8154815290600101906020018083116107c457829003601f168201915b5050505050905090565b6002600754141561083e5760405162461bcd60e51b815260206004820152601f60248201527f5265656e7472616e637947756172643a207265656e7472616e742063616c6c00604482015260640161044e565b600260075560065460ff166108835760405162461bcd60e51b815260206004820152601e6024820152600080516020613db5833981519152604482015260640161044e565b6000826001600160801b0316116108dc5760405162461bcd60e51b815260206004820152601960248201527f796f752073686f756c642073656e6420736f6d657468696e6700000000000000604482015260640161044e565b60006108e9601e836135f4565b63ffffffff16905060b48111156109425760405162461bcd60e51b815260206004820181905260248201527f796f752073686f756c64206c6f636b206c657373207468616e20312079656172604482015260640161044e565b600854604051636eb1769f60e11b81523360048201523060248201526001600160801b038516916001600160a01b03169063dd62ed3e9060440160206040518083038186803b15801561099457600080fd5b505afa1580156109a8573d6000803e3d6000fd5b505050506040513d601f19601f820116820180604052508101906109cc9190613687565b1015610a1a5760405162461bcd60e51b815260206004820152601160248201527f746f6b656e206e6f7420616c6c6f776564000000000000000000000000000000604482015260640161044e565b610a2d33846001600160801b031661210d565b610a795760405162461bcd60e51b815260206004820152601360248201527f7472616e736665722066726f6d206661696c7300000000000000000000000000604482015260640161044e565b600b60008154610a88906136a0565b9182905550600b81905560408051808201909152601781527f6e657720726576656e756520736861726520746f6b656e0000000000000000006020820152610ad19133916121d6565b6040805160608101825267ffffffffffffffff428116825283811660208084019182526001600160801b03808916858701818152600b546000908152600a90945296832095518654945197518316600160801b02978616600160401b026fffffffffffffffffffffffffffffffff199095169516949094179290921790911693909317909155600c805491929091610b6a9084906136bb565b9091555050600b546040516001600160801b0385169033907fca9d6c2186da93aeaa4389840c0502d86b2166d5fbaf73f90a3424263d3eb95290600090a45050600160075550565b60065460009060ff16610bf55760405162461bcd60e51b815260206004820152601e6024820152600080516020613db5833981519152604482015260640161044e565b6000828152600260205260409020546001600160a01b0316610c6e5760405162461bcd60e51b815260206004820152602c60248201527f4552433732313a20617070726f76656420717565727920666f72206e6f6e657860448201526b34b9ba32b73a103a37b5b2b760a11b606482015260840161044e565b506000908152600460205260409020546001600160a01b031690565b60065460ff16610cca5760405162461bcd60e51b815260206004820152601e6024820152600080516020613db5833981519152604482015260640161044e565b6000610cd5826114b2565b9050806001600160a01b0316836001600160a01b03161415610d435760405162461bcd60e51b815260206004820152602160248201527f4552433732313a20617070726f76616c20746f2063757272656e74206f776e656044820152603960f91b606482015260840161044e565b336001600160a01b0382161480610d5f5750610d5f8133611c2f565b610dd15760405162461bcd60e51b815260206004820152603860248201527f4552433732313a20617070726f76652063616c6c6572206973206e6f74206f7760448201527f6e6572206e6f7220617070726f76656420666f7220616c6c0000000000000000606482015260840161044e565b610ddb8383612254565b505050565b6006546000908190819060ff16610e275760405162461bcd60e51b815260206004820152601e6024820152600080516020613db5833981519152604482015260640161044e565b6000848152600260205260409020546001600160a01b0316610ea35760405162461bcd60e51b815260206004820152602f60248201527f4552433732314d657461646174613a2055524920717565727920666f72206e6f60448201526e3732bc34b9ba32b73a103a37b5b2b760891b606482015260840161044e565b5050506000908152600a60209081526040918290208251606081018452905467ffffffffffffffff808216808452600160401b8304909116938301849052600160801b9091046001600160801b0316919093018190529192909190565b60065460ff16610f405760405162461bcd60e51b815260206004820152601e6024820152600080516020613db5833981519152604482015260640161044e565b610f4a33826122c2565b610fbc5760405162461bcd60e51b815260206004820152603160248201527f4552433732313a207472616e736665722063616c6c6572206973206e6f74206f60448201527f776e6572206e6f7220617070726f766564000000000000000000000000000000606482015260840161044e565b610ddb838383612399565b6002600754141561101a5760405162461bcd60e51b815260206004820152601f60248201527f5265656e7472616e637947756172643a207265656e7472616e742063616c6c00604482015260640161044e565b600260075560065460ff1661105f5760405162461bcd60e51b815260206004820152601e6024820152600080516020613db5833981519152604482015260640161044e565b33611069826114b2565b6001600160a01b0316146110ca5760405162461bcd60e51b815260206004820152602260248201527f796f7520617265206e6f7420746865206f776e6572206f662074686520746f6b60448201526132b760f11b606482015260840161044e565b6000818152600a602090815260408083208151606081018352905467ffffffffffffffff808216808452600160401b8304909116948301859052600160801b9091046001600160801b031692820192909252929161112791613620565b67ffffffffffffffff169050804210156111835760405162461bcd60e51b815260206004820152601760248201527f796f757220746f6b656e206974206973206c6f636b6564000000000000000000604482015260640161044e565b61118c8361254d565b6000838152600a6020526040808220919091558201516111b69033906001600160801b03166125e8565b6112025760405162461bcd60e51b815260206004820152601a60248201527f7472616e736665722072657761726420746f6b656e206661696c000000000000604482015260640161044e565b81604001516001600160801b0316600c600082825461122191906136d3565b9091555050604080830151905184916001600160801b03169033907f1b70dfe4378466b3ec15df5e22a222bd213c1970e60e6394277108a78008c9e290600090a45050600160075550565b60065460ff166112ac5760405162461bcd60e51b815260206004820152601e6024820152600080516020613db5833981519152604482015260640161044e565b610ddb83838360405180602001604052806000815250611a3b565b60065460009060ff1661130a5760405162461bcd60e51b815260206004820152601e6024820152600080516020613db5833981519152604482015260640161044e565b506008546001600160a01b031690565b60065460ff161561136d5760405162461bcd60e51b815260206004820152601c60248201527f636f6e747261637420616c726561647920696e697469616c697a656400000000604482015260640161044e565b81516113809060009060208501906130fe565b5080516113949060019060208401906130fe565b50506006805460ff19811660ff9091161517905550565b60065460ff16156113fe5760405162461bcd60e51b815260206004820152601c60248201527f636f6e747261637420616c726561647920696e697469616c697a656400000000604482015260640161044e565b60405163266c45bb60e11b81523090634cd88b769061142390869086906004016136ea565b600060405180830381600087803b15801561143d57600080fd5b505af1158015611451573d6000803e3d6000fd5b5050600880546001600160a01b0319166001600160a01b038816179055505080516114839060099060208401906130fe565b5082516114979060009060208601906130fe565b5081516114ab9060019060208501906130fe565b5050505050565b60065460009060ff166114f55760405162461bcd60e51b815260206004820152601e6024820152600080516020613db5833981519152604482015260640161044e565b6000828152600260205260409020546001600160a01b0316806104a15760405162461bcd60e51b815260206004820152602960248201527f4552433732313a206f776e657220717565727920666f72206e6f6e657869737460448201527f656e7420746f6b656e0000000000000000000000000000000000000000000000606482015260840161044e565b60065460009060ff166115c35760405162461bcd60e51b815260206004820152601e6024820152600080516020613db5833981519152604482015260640161044e565b6001600160a01b03821661163f5760405162461bcd60e51b815260206004820152602a60248201527f4552433732313a2062616c616e636520717565727920666f7220746865207a6560448201527f726f206164647265737300000000000000000000000000000000000000000000606482015260840161044e565b506001600160a01b031660009081526003602052604090205490565b60065460609060ff1661169e5760405162461bcd60e51b815260206004820152601e6024820152600080516020613db5833981519152604482015260640161044e565b600180546107689061364c565b600260075414156116fe5760405162461bcd60e51b815260206004820152601f60248201527f5265656e7472616e637947756172643a207265656e7472616e742063616c6c00604482015260640161044e565b600260075560065460ff166117435760405162461bcd60e51b815260206004820152601e6024820152600080516020613db5833981519152604482015260640161044e565b6000816001600160801b03161161179c5760405162461bcd60e51b815260206004820152601960248201527f796f752073686f756c642073656e6420736f6d657468696e6700000000000000604482015260640161044e565b336117a6836114b2565b6001600160a01b0316146118075760405162461bcd60e51b815260206004820152602260248201527f796f7520617265206e6f7420746865206f776e6572206f662074686520746f6b60448201526132b760f11b606482015260840161044e565b600854604051636eb1769f60e11b81523360048201523060248201526001600160801b038316916001600160a01b03169063dd62ed3e9060440160206040518083038186803b15801561185957600080fd5b505afa15801561186d573d6000803e3d6000fd5b505050506040513d601f19601f820116820180604052508101906118919190613687565b10156118df5760405162461bcd60e51b815260206004820152601160248201527f746f6b656e206e6f7420616c6c6f776564000000000000000000000000000000604482015260640161044e565b6118f233826001600160801b031661210d565b61193e5760405162461bcd60e51b815260206004820152601360248201527f7472616e736665722066726f6d206661696c7300000000000000000000000000604482015260640161044e565b6000828152600a60209081526040918290208251606081018452905467ffffffffffffffff8082168352600160401b82041692820192909252600160801b9091046001600160801b0316918101828152909183919061199e908390613718565b6001600160801b03908116909152604080840151905186935091169033907f1b19f76aa8a395d07c9a4e1797d38e106626cf768deb1ee343591dd786d15ea690600090a45050600160075550565b60065460ff16611a2c5760405162461bcd60e51b815260206004820152601e6024820152600080516020613db5833981519152604482015260640161044e565b611a373383836126a7565b5050565b60065460ff16611a7b5760405162461bcd60e51b815260206004820152601e6024820152600080516020613db5833981519152604482015260640161044e565b611a8533836122c2565b611af75760405162461bcd60e51b815260206004820152603160248201527f4552433732313a207472616e736665722063616c6c6572206973206e6f74206f60448201527f776e6572206e6f7220617070726f766564000000000000000000000000000000606482015260840161044e565b611b0384848484612776565b50505050565b60065460609060ff16611b4c5760405162461bcd60e51b815260206004820152601e6024820152600080516020613db5833981519152604482015260640161044e565b6000828152600260205260409020546001600160a01b0316611bc85760405162461bcd60e51b815260206004820152602f60248201527f4552433732314d657461646174613a2055524920717565727920666f72206e6f60448201526e3732bc34b9ba32b73a103a37b5b2b760891b606482015260840161044e565b6000828152600a60209081526040918290208251606081018452905467ffffffffffffffff808216808452600160401b8304909116938301849052600160801b9091046001600160801b03169382018490529092611c28928692906127f4565b9392505050565b60065460009060ff16611c725760405162461bcd60e51b815260206004820152601e6024820152600080516020613db5833981519152604482015260640161044e565b506001600160a01b03918216600090815260056020908152604080832093909416825291909152205460ff1690565b60026007541415611cf45760405162461bcd60e51b815260206004820152601f60248201527f5265656e7472616e637947756172643a207265656e7472616e742063616c6c00604482015260640161044e565b600260075560065460ff16611d395760405162461bcd60e51b815260206004820152601e6024820152600080516020613db5833981519152604482015260640161044e565b6000816001600160801b031611611d925760405162461bcd60e51b815260206004820152601960248201527f796f752073686f756c642073656e6420736f6d657468696e6700000000000000604482015260640161044e565b33611d9c836114b2565b6001600160a01b031614611dfd5760405162461bcd60e51b815260206004820152602260248201527f796f7520617265206e6f7420746865206f776e6572206f662074686520746f6b60448201526132b760f11b606482015260840161044e565b6000828152600a60209081526040918290208251606081018452905467ffffffffffffffff8082168352600160401b820416928201929092526001600160801b03600160801b9092048216928101839052919083161115611ea05760405162461bcd60e51b815260206004820181905260248201527f646f206e6f74206861766520656e6f75676820616d6f756e74207374616b6564604482015260640161044e565b60208101518151600091611eb391613620565b90504267ffffffffffffffff80831690821610611f125760405162461bcd60e51b815260206004820152601b60248201527f796f752063616e20646f20726567756c61722077697468647261770000000000604482015260640161044e565b600082611f218361271061373a565b611f2b9190613777565b67ffffffffffffffff1690506000612710611f46838861379e565b611f5091906137c4565b90508585604001818151611f6491906137de565b6001600160801b0316905250611f8c33611f7e83896137de565b6001600160801b03166125e8565b611fd85760405162461bcd60e51b815260206004820152601a60248201527f7472616e736665722072657761726420746f6b656e206661696c000000000000604482015260640161044e565b60408501516001600160801b031661200357611ff38761254d565b6000878152600a60205260408120555b856001600160801b0316600c600082825461201e91906136d3565b90915550506040516001600160801b03828116825287169033907f1d751b8822d627abfea40c08f45c2b5ffb0bb6d1754831a4662288377489289f9060200160405180910390a3505060016007555050505050565b60065460009060ff166120b65760405162461bcd60e51b815260206004820152601e6024820152600080516020613db5833981519152604482015260640161044e565b50600c5490565b60065460609060ff166121005760405162461bcd60e51b815260206004820152601e6024820152600080516020613db5833981519152604482015260640161044e565b600980546107689061364c565b60006001600160a01b0383166121655760405162461bcd60e51b815260206004820152601560248201527f6d7573742062652076616c696420616464726573730000000000000000000000604482015260640161044e565b600082116121b55760405162461bcd60e51b815260206004820152601760248201527f796f75206d7573742073656e6420736f6d657468696e67000000000000000000604482015260640161044e565b6008546121cd906001600160a01b0316843085612948565b50600192915050565b6121e083836129c8565b6121ed6000848484612b0a565b610ddb5760405162461bcd60e51b815260206004820152603260248201527f4552433732313a207472616e7366657220746f206e6f6e20455243373231526560448201527131b2b4bb32b91034b6b83632b6b2b73a32b960711b606482015260840161044e565b600081815260046020526040902080546001600160a01b0319166001600160a01b0384169081179091558190612289826114b2565b6001600160a01b03167f8c5be1e5ebec7d5bd14f71427d1e84f3dd0314c0f7b2291e5b200ac8c7c3b92560405160405180910390a45050565b6000818152600260205260408120546001600160a01b031661233b5760405162461bcd60e51b815260206004820152602c60248201527f4552433732313a206f70657261746f7220717565727920666f72206e6f6e657860448201526b34b9ba32b73a103a37b5b2b760a11b606482015260840161044e565b6000612346836114b2565b9050806001600160a01b0316846001600160a01b031614806123815750836001600160a01b031661237684610bb2565b6001600160a01b0316145b8061239157506123918185611c2f565b949350505050565b826001600160a01b03166123ac826114b2565b6001600160a01b0316146124285760405162461bcd60e51b815260206004820152602960248201527f4552433732313a207472616e73666572206f6620746f6b656e2074686174206960448201527f73206e6f74206f776e0000000000000000000000000000000000000000000000606482015260840161044e565b6001600160a01b03821661248a5760405162461bcd60e51b8152602060048201526024808201527f4552433732313a207472616e7366657220746f20746865207a65726f206164646044820152637265737360e01b606482015260840161044e565b612495600082612254565b6001600160a01b03831660009081526003602052604081208054600192906124be9084906136d3565b90915550506001600160a01b03821660009081526003602052604081208054600192906124ec9084906136bb565b909155505060008181526002602052604080822080546001600160a01b0319166001600160a01b0386811691821790925591518493918716917fddf252ad1be2c89b69c2b068fc378daa952ba7f163c4a11628f55a4df523b3ef91a4505050565b6000612558826114b2565b9050612565600083612254565b6001600160a01b038116600090815260036020526040812080546001929061258e9084906136d3565b909155505060008281526002602052604080822080546001600160a01b0319169055518391906001600160a01b038416907fddf252ad1be2c89b69c2b068fc378daa952ba7f163c4a11628f55a4df523b3ef908390a45050565b60006001600160a01b0383166126405760405162461bcd60e51b815260206004820152601560248201527f6d7573742062652076616c696420616464726573730000000000000000000000604482015260640161044e565b600082116126905760405162461bcd60e51b815260206004820152601760248201527f796f75206d7573742073656e6420736f6d657468696e67000000000000000000604482015260640161044e565b6008546121cd906001600160a01b03168484612c62565b816001600160a01b0316836001600160a01b031614156127095760405162461bcd60e51b815260206004820152601960248201527f4552433732313a20617070726f766520746f2063616c6c657200000000000000604482015260640161044e565b6001600160a01b03838116600081815260056020908152604080832094871680845294825291829020805460ff191686151590811790915591519182527f17307eab39ab6107e8899845ad3d59bd9653f200f220920489ca2b5937696c31910160405180910390a3505050565b612781848484612399565b61278d84848484612b0a565b611b035760405162461bcd60e51b815260206004820152603260248201527f4552433732313a207472616e7366657220746f206e6f6e20455243373231526560448201527131b2b4bb32b91034b6b83632b6b2b73a32b960711b606482015260840161044e565b606060405180610120016040528060fd8152602001613c7860fd913990508061281c86612c92565b60405160200161282d929190613806565b604051602081830303815290604052905080612851856001600160801b0316612c92565b604051602001612862929190613899565b6040516020818303038152906040529050806128878467ffffffffffffffff16612c92565b60405160200161289892919061392c565b6040516020818303038152906040529050806128bd8367ffffffffffffffff16612c92565b6040516020016128ce9291906139bf565b6040516020818303038152906040529050600061291b6128ed87612c92565b6128f684612da8565b604051602001612907929190613a41565b604051602081830303815290604052612da8565b90508060405160200161292e9190613b43565b604051602081830303815290604052915050949350505050565b6040516001600160a01b0380851660248301528316604482015260648101829052611b039085906323b872dd60e01b906084015b60408051601f198184030181529190526020810180517bffffffffffffffffffffffffffffffffffffffffffffffffffffffff166001600160e01b031990931692909217909152612f0e565b6001600160a01b038216612a1e5760405162461bcd60e51b815260206004820181905260248201527f4552433732313a206d696e7420746f20746865207a65726f2061646472657373604482015260640161044e565b6000818152600260205260409020546001600160a01b031615612a835760405162461bcd60e51b815260206004820152601c60248201527f4552433732313a20746f6b656e20616c7265616479206d696e74656400000000604482015260640161044e565b6001600160a01b0382166000908152600360205260408120805460019290612aac9084906136bb565b909155505060008181526002602052604080822080546001600160a01b0319166001600160a01b03861690811790915590518392907fddf252ad1be2c89b69c2b068fc378daa952ba7f163c4a11628f55a4df523b3ef908290a45050565b60006001600160a01b0384163b15612c5757604051630a85bd0160e11b81526001600160a01b0385169063150b7a0290612b4e903390899088908890600401613b88565b602060405180830381600087803b158015612b6857600080fd5b505af1925050508015612b98575060408051601f3d908101601f19168201909252612b9591810190613bc4565b60015b612c3d573d808015612bc6576040519150601f19603f3d011682016040523d82523d6000602084013e612bcb565b606091505b508051612c355760405162461bcd60e51b815260206004820152603260248201527f4552433732313a207472616e7366657220746f206e6f6e20455243373231526560448201527131b2b4bb32b91034b6b83632b6b2b73a32b960711b606482015260840161044e565b805181602001fd5b6001600160e01b031916630a85bd0160e11b149050612391565b506001949350505050565b6040516001600160a01b038316602482015260448101829052610ddb90849063a9059cbb60e01b9060640161297c565b606081612cb65750506040805180820190915260018152600360fc1b602082015290565b8160005b8115612ce05780612cca816136a0565b9150612cd99050600a83613be1565b9150612cba565b60008167ffffffffffffffff811115612cfb57612cfb61333b565b6040519080825280601f01601f191660200182016040528015612d25576020820181803683370190505b5090505b841561239157612d3a6001836136d3565b9150612d47600a86613bf5565b612d529060306136bb565b60f81b818381518110612d6757612d67613c09565b60200101907effffffffffffffffffffffffffffffffffffffffffffffffffffffffffffff1916908160001a905350612da1600a86613be1565b9450612d29565b805160609080612dc8575050604080516020810190915260008152919050565b60006003612dd78360026136bb565b612de19190613be1565b612dec906004613c1f565b90506000612dfb8260206136bb565b67ffffffffffffffff811115612e1357612e1361333b565b6040519080825280601f01601f191660200182016040528015612e3d576020820181803683370190505b5090506000604051806060016040528060408152602001613d75604091399050600181016020830160005b86811015612ec9576003818a01810151603f601282901c8116860151600c83901c8216870151600684901c831688015192909316870151600891821b60ff94851601821b92841692909201901b91160160e01b835260049092019101612e68565b506003860660018114612ee35760028114612ef457612f00565b613d3d60f01b600119830152612f00565b603d60f81b6000198301525b505050918152949350505050565b6000612f63826040518060400160405280602081526020017f5361666545524332303a206c6f772d6c6576656c2063616c6c206661696c6564815250856001600160a01b0316612ff39092919063ffffffff16565b805190915015610ddb5780806020019051810190612f819190613c3e565b610ddb5760405162461bcd60e51b815260206004820152602a60248201527f5361666545524332303a204552433230206f7065726174696f6e20646964206e60448201527f6f74207375636365656400000000000000000000000000000000000000000000606482015260840161044e565b6060612391848460008585843b61304c5760405162461bcd60e51b815260206004820152601d60248201527f416464726573733a2063616c6c20746f206e6f6e2d636f6e7472616374000000604482015260640161044e565b600080866001600160a01b031685876040516130689190613c5b565b60006040518083038185875af1925050503d80600081146130a5576040519150601f19603f3d011682016040523d82523d6000602084013e6130aa565b606091505b50915091506130ba8282866130c5565b979650505050505050565b606083156130d4575081611c28565b8251156130e45782518084602001fd5b8160405162461bcd60e51b815260040161044e9190613268565b82805461310a9061364c565b90600052602060002090601f01602090048101928261312c5760008555613172565b82601f1061314557805160ff1916838001178555613172565b82800160010185558215613172579182015b82811115613172578251825591602001919060010190613157565b5061317e929150613182565b5090565b5b8082111561317e5760008155600101613183565b6001600160e01b0319811681146131ad57600080fd5b50565b6000602082840312156131c257600080fd5b8135611c2881613197565b80356001600160801b03811681146104a457600080fd5b600080604083850312156131f757600080fd5b82359150613207602084016131cd565b90509250929050565b60005b8381101561322b578181015183820152602001613213565b83811115611b035750506000910152565b60008151808452613254816020860160208601613210565b601f01601f19169290920160200192915050565b602081526000611c28602083018461323c565b6000806040838503121561328e57600080fd5b613297836131cd565b9150613207602084016131cd565b6000602082840312156132b757600080fd5b5035919050565b80356001600160a01b03811681146104a457600080fd5b600080604083850312156132e857600080fd5b6132f1836132be565b946020939093013593505050565b60008060006060848603121561331457600080fd5b61331d846132be565b925061332b602085016132be565b9150604084013590509250925092565b634e487b7160e01b600052604160045260246000fd5b600067ffffffffffffffff8084111561336c5761336c61333b565b604051601f8501601f19908116603f011681019082821181831017156133945761339461333b565b816040528093508581528686860111156133ad57600080fd5b858560208301376000602087830101525050509392505050565b600082601f8301126133d857600080fd5b611c2883833560208501613351565b600080604083850312156133fa57600080fd5b823567ffffffffffffffff8082111561341257600080fd5b61341e868387016133c7565b9350602085013591508082111561343457600080fd5b50613441858286016133c7565b9150509250929050565b6000806000806080858703121561346157600080fd5b61346a856132be565b9350602085013567ffffffffffffffff8082111561348757600080fd5b613493888389016133c7565b945060408701359150808211156134a957600080fd5b6134b5888389016133c7565b935060608701359150808211156134cb57600080fd5b506134d8878288016133c7565b91505092959194509250565b6000602082840312156134f657600080fd5b611c28826132be565b80151581146131ad57600080fd5b6000806040838503121561352057600080fd5b613529836132be565b91506020830135613539816134ff565b809150509250929050565b6000806000806080858703121561355a57600080fd5b613563856132be565b9350613571602086016132be565b925060408501359150606085013567ffffffffffffffff81111561359457600080fd5b8501601f810187136135a557600080fd5b6134d887823560208401613351565b600080604083850312156135c757600080fd5b6135d0836132be565b9150613207602084016132be565b634e487b7160e01b600052601160045260246000fd5b600063ffffffff80831681851681830481118215151615613617576136176135de565b02949350505050565b600067ffffffffffffffff808316818516808303821115613643576136436135de565b01949350505050565b600181811c9082168061366057607f821691505b6020821081141561368157634e487b7160e01b600052602260045260246000fd5b50919050565b60006020828403121561369957600080fd5b5051919050565b60006000198214156136b4576136b46135de565b5060010190565b600082198211156136ce576136ce6135de565b500190565b6000828210156136e5576136e56135de565b500390565b6040815260006136fd604083018561323c565b828103602084015261370f818561323c565b95945050505050565b60006001600160801b03808316818516808303821115613643576136436135de565b600067ffffffffffffffff80831681851681830481118215151615613617576136176135de565b634e487b7160e01b600052601260045260246000fd5b600067ffffffffffffffff8084168061379257613792613761565b92169190910492915050565b60006001600160801b0380831681851681830481118215151615613617576136176135de565b60006001600160801b038084168061379257613792613761565b60006001600160801b03838116908316818110156137fe576137fe6135de565b039392505050565b60008351613818818460208801613210565b7f746f6b656e3a20000000000000000000000000000000000000000000000000009083019081528351613852816007840160208801613210565b7f3c2f746578743e3c7465787420783d2231302220793d2234302220636c61737360079290910191820152671e913130b9b2911f60c11b6027820152602f01949350505050565b600083516138ab818460208801613210565b7f616d6f756e743a2000000000000000000000000000000000000000000000000090830190815283516138e5816008840160208801613210565b7f3c2f746578743e3c7465787420783d2231302220793d2236302220636c61737360089290910191820152671e913130b9b2911f60c11b6028820152603001949350505050565b6000835161393e818460208801613210565b7f637265617465645f74696d653a20000000000000000000000000000000000000908301908152835161397881600e840160208801613210565b7f3c2f746578743e3c7465787420783d2231302220793d2238302220636c617373600e9290910191820152671e913130b9b2911f60c11b602e820152603601949350505050565b600083516139d1818460208801613210565b7f6c6f636b65645f74696d653a20000000000000000000000000000000000000009083019081528351613a0b81600d840160208801613210565b7f3c2f746578743e3c2f7376673e00000000000000000000000000000000000000600d9290910191820152601a01949350505050565b7f7b226e616d65223a20226c6f636b202300000000000000000000000000000000815260008351613a79816010850160208801613210565b7f222c20226465736372697074696f6e223a20224e465420526576656e756520736010918401918201527f686172652c2063616e206265207573656420746f20726563656976652070617360308201527f7369766520696e636f6d65222c2022696d616765223a2022646174613a696d6160508201527f67652f7376672b786d6c3b6261736536342c000000000000000000000000000060708201528351613b28816082840160208801613210565b61227d60f01b60829290910191820152608401949350505050565b7f646174613a6170706c69636174696f6e2f6a736f6e3b6261736536342c000000815260008251613b7b81601d850160208701613210565b91909101601d0192915050565b60006001600160a01b03808716835280861660208401525083604083015260806060830152613bba608083018461323c565b9695505050505050565b600060208284031215613bd657600080fd5b8151611c2881613197565b600082613bf057613bf0613761565b500490565b600082613c0457613c04613761565b500690565b634e487b7160e01b600052603260045260246000fd5b6000816000190483118215151615613c3957613c396135de565b500290565b600060208284031215613c5057600080fd5b8151611c28816134ff565b60008251613c6d818460208701613210565b919091019291505056fe3c73766720786d6c6e733d22687474703a2f2f7777772e77332e6f72672f323030302f73766722207072657365727665417370656374526174696f3d22784d696e594d696e206d656574222076696577426f783d223020302033353020333530223e3c7374796c653e2e62617365207b2066696c6c3a2077686974653b20666f6e742d66616d696c793a2073657269663b20666f6e742d73697a653a20313470783b207d3c2f7374796c653e3c726563742077696474683d223130302522206865696768743d2231303025222066696c6c3d22626c61636b22202f3e3c7465787420783d2231302220793d2232302220636c6173733d2262617365223e4142434445464748494a4b4c4d4e4f505152535455565758595a6162636465666768696a6b6c6d6e6f707172737475767778797a303132333435363738392b2f636f6e7472616374206974206973206e6f7420696e697469616c697a65640000a164736f6c6343000809000a",
  "linkReferences": {},
  "deployedLinkReferences": {}
}