{
  "_format": "hh-sol-artifact-1",
  "contractName": "StakedShare",
  "sourceName": "contracts/StakedShare.sol",
  "abi": [
    {
      "inputs": [
        {
          "internalType": "address",
          "name": "projectToken_",
          "type": "address"
        }
      ],
      "stateMutability": "nonpayable",
      "type": "constructor"
    },
    {
      "anonymous": false,
      "inputs": [
        {
          "indexed": true,
          "internalType": "address",
          "name": "owner",
          "type": "address"
        },
        {
          "indexed": true,
          "internalType": "address",
          "name": "approved",
          "type": "address"
        },
        {
          "indexed": true,
          "internalType": "uint256",
          "name": "tokenId",
          "type": "uint256"
        }
      ],
      "name": "Approval",
      "type": "event"
    },
    {
      "anonymous": false,
      "inputs": [
        {
          "indexed": true,
          "internalType": "address",
          "name": "owner",
          "type": "address"
        },
        {
          "indexed": true,
          "internalType": "address",
          "name": "operator",
          "type": "address"
        },
        {
          "indexed": false,
          "internalType": "bool",
          "name": "approved",
          "type": "bool"
        }
      ],
      "name": "ApprovalForAll",
      "type": "event"
    },
    {
      "anonymous": false,
      "inputs": [
        {
          "indexed": true,
          "internalType": "address",
          "name": "staker",
          "type": "address"
        },
        {
          "indexed": true,
          "internalType": "uint256",
          "name": "amount",
          "type": "uint256"
        },
        {
          "indexed": true,
          "internalType": "uint256",
          "name": "NFTId",
          "type": "uint256"
        }
      ],
      "name": "Staked",
      "type": "event"
    },
    {
      "anonymous": false,
      "inputs": [
        {
          "indexed": true,
          "internalType": "address",
          "name": "from",
          "type": "address"
        },
        {
          "indexed": true,
          "internalType": "address",
          "name": "to",
          "type": "address"
        },
        {
          "indexed": true,
          "internalType": "uint256",
          "name": "tokenId",
          "type": "uint256"
        }
      ],
      "name": "Transfer",
      "type": "event"
    },
    {
      "anonymous": false,
      "inputs": [
        {
          "indexed": true,
          "internalType": "address",
          "name": "withdrawer",
          "type": "address"
        },
        {
          "indexed": true,
          "internalType": "uint256",
          "name": "amount",
          "type": "uint256"
        },
        {
          "indexed": true,
          "internalType": "uint256",
          "name": "NFTId",
          "type": "uint256"
        }
      ],
      "name": "Withdrawn",
      "type": "event"
    },
    {
      "inputs": [
        {
          "internalType": "address",
          "name": "to",
          "type": "address"
        },
        {
          "internalType": "uint256",
          "name": "tokenId",
          "type": "uint256"
        }
      ],
      "name": "approve",
      "outputs": [],
      "stateMutability": "nonpayable",
      "type": "function"
    },
    {
      "inputs": [
        {
          "internalType": "address",
          "name": "owner",
          "type": "address"
        }
      ],
      "name": "balanceOf",
      "outputs": [
        {
          "internalType": "uint256",
          "name": "",
          "type": "uint256"
        }
      ],
      "stateMutability": "view",
      "type": "function"
    },
    {
      "inputs": [
        {
          "internalType": "uint256",
          "name": "tokenId",
          "type": "uint256"
        }
      ],
      "name": "getApproved",
      "outputs": [
        {
          "internalType": "address",
          "name": "",
          "type": "address"
        }
      ],
      "stateMutability": "view",
      "type": "function"
    },
    {
      "inputs": [
        {
          "internalType": "address",
          "name": "owner",
          "type": "address"
        },
        {
          "internalType": "address",
          "name": "operator",
          "type": "address"
        }
      ],
      "name": "isApprovedForAll",
      "outputs": [
        {
          "internalType": "bool",
          "name": "",
          "type": "bool"
        }
      ],
      "stateMutability": "view",
      "type": "function"
    },
    {
      "inputs": [],
      "name": "name",
      "outputs": [
        {
          "internalType": "string",
          "name": "",
          "type": "string"
        }
      ],
      "stateMutability": "view",
      "type": "function"
    },
    {
      "inputs": [
        {
          "internalType": "uint256",
          "name": "tokenId",
          "type": "uint256"
        }
      ],
      "name": "ownerOf",
      "outputs": [
        {
          "internalType": "address",
          "name": "",
          "type": "address"
        }
      ],
      "stateMutability": "view",
      "type": "function"
    },
    {
      "inputs": [],
      "name": "projectToken",
      "outputs": [
        {
          "internalType": "address",
          "name": "",
          "type": "address"
        }
      ],
      "stateMutability": "view",
      "type": "function"
    },
    {
      "inputs": [
        {
          "internalType": "uint256",
          "name": "",
          "type": "uint256"
        }
      ],
      "name": "revToken",
      "outputs": [
        {
          "internalType": "uint64",
          "name": "created",
          "type": "uint64"
        },
        {
          "internalType": "uint64",
          "name": "locked",
          "type": "uint64"
        },
        {
          "internalType": "uint128",
          "name": "amount",
          "type": "uint128"
        }
      ],
      "stateMutability": "view",
      "type": "function"
    },
    {
      "inputs": [],
      "name": "rsId",
      "outputs": [
        {
          "internalType": "uint256",
          "name": "",
          "type": "uint256"
        }
      ],
      "stateMutability": "view",
      "type": "function"
    },
    {
      "inputs": [
        {
          "internalType": "address",
          "name": "from",
          "type": "address"
        },
        {
          "internalType": "address",
          "name": "to",
          "type": "address"
        },
        {
          "internalType": "uint256",
          "name": "tokenId",
          "type": "uint256"
        }
      ],
      "name": "safeTransferFrom",
      "outputs": [],
      "stateMutability": "nonpayable",
      "type": "function"
    },
    {
      "inputs": [
        {
          "internalType": "address",
          "name": "from",
          "type": "address"
        },
        {
          "internalType": "address",
          "name": "to",
          "type": "address"
        },
        {
          "internalType": "uint256",
          "name": "tokenId",
          "type": "uint256"
        },
        {
          "internalType": "bytes",
          "name": "_data",
          "type": "bytes"
        }
      ],
      "name": "safeTransferFrom",
      "outputs": [],
      "stateMutability": "nonpayable",
      "type": "function"
    },
    {
      "inputs": [
        {
          "internalType": "address",
          "name": "operator",
          "type": "address"
        },
        {
          "internalType": "bool",
          "name": "approved",
          "type": "bool"
        }
      ],
      "name": "setApprovalForAll",
      "outputs": [],
      "stateMutability": "nonpayable",
      "type": "function"
    },
    {
      "inputs": [
        {
          "internalType": "uint128",
          "name": "amount",
          "type": "uint128"
        },
        {
          "internalType": "uint128",
          "name": "lock",
          "type": "uint128"
        }
      ],
      "name": "stake",
      "outputs": [
        {
          "internalType": "bool",
          "name": "",
          "type": "bool"
        }
      ],
      "stateMutability": "nonpayable",
      "type": "function"
    },
    {
      "inputs": [
        {
          "internalType": "bytes4",
          "name": "interfaceId",
          "type": "bytes4"
        }
      ],
      "name": "supportsInterface",
      "outputs": [
        {
          "internalType": "bool",
          "name": "",
          "type": "bool"
        }
      ],
      "stateMutability": "view",
      "type": "function"
    },
    {
      "inputs": [],
      "name": "symbol",
      "outputs": [
        {
          "internalType": "string",
          "name": "",
          "type": "string"
        }
      ],
      "stateMutability": "view",
      "type": "function"
    },
    {
      "inputs": [
        {
          "internalType": "uint256",
          "name": "tokenId",
          "type": "uint256"
        }
      ],
      "name": "tokenURI",
      "outputs": [
        {
          "internalType": "string",
          "name": "",
          "type": "string"
        }
      ],
      "stateMutability": "view",
      "type": "function"
    },
    {
      "inputs": [
        {
          "internalType": "address",
          "name": "from",
          "type": "address"
        },
        {
          "internalType": "address",
          "name": "to",
          "type": "address"
        },
        {
          "internalType": "uint256",
          "name": "tokenId",
          "type": "uint256"
        }
      ],
      "name": "transferFrom",
      "outputs": [],
      "stateMutability": "nonpayable",
      "type": "function"
    },
    {
      "inputs": [
        {
          "internalType": "uint256",
          "name": "tokenId",
          "type": "uint256"
        }
      ],
      "name": "withdraw",
      "outputs": [
        {
          "internalType": "bool",
          "name": "",
          "type": "bool"
        }
      ],
      "stateMutability": "nonpayable",
      "type": "function"
    }
  ],
  "bytecode": "0x60806040523480156200001157600080fd5b5060405162002b4f38038062002b4f8339810160408190526200003491620001d2565b604080518082018252600d81526c2932bb32b73ab2902a37b5b2b760991b602080830191825283518085019094526002845261149560f21b90840152815191929162000083916000916200012c565b508051620000999060019060208401906200012c565b50506001600655506001600160a01b038116620001065760405162461bcd60e51b815260206004820152602160248201527f73686f756c64206861766520612076616c696420746f6b656e206164647265736044820152607360f81b606482015260840160405180910390fd5b600780546001600160a01b0319166001600160a01b039290921691909117905562000241565b8280546200013a9062000204565b90600052602060002090601f0160209004810192826200015e5760008555620001a9565b82601f106200017957805160ff1916838001178555620001a9565b82800160010185558215620001a9579182015b82811115620001a95782518255916020019190600101906200018c565b50620001b7929150620001bb565b5090565b5b80821115620001b75760008155600101620001bc565b600060208284031215620001e557600080fd5b81516001600160a01b0381168114620001fd57600080fd5b9392505050565b600181811c908216806200021957607f821691505b602082108114156200023b57634e487b7160e01b600052602260045260246000fd5b50919050565b6128fe80620002516000396000f3fe608060405234801561001057600080fd5b50600436106101365760003560e01c80636352211e116100b2578063a604b10111610081578063b88d4fde11610066578063b88d4fde146102ec578063c87b56dd146102ff578063e985e9c51461031257600080fd5b8063a604b10114610266578063b702ab111461026f57600080fd5b80636352211e1461021757806370a082311461022a57806395d89b411461024b578063a22cb4651461025357600080fd5b8063095ea7b3116101095780632e1a7d4d116100ee5780632e1a7d4d146101de57806342842e0e146101f15780634b60ce771461020457600080fd5b8063095ea7b3146101b657806323b872dd146101cb57600080fd5b806301ffc9a71461013b57806306fdde031461016357806307fd876314610178578063081812fc1461018b575b600080fd5b61014e610149366004611f38565b61034e565b60405190151581526020015b60405180910390f35b61016b6103a0565b60405161015a9190611fad565b61014e610186366004611fdc565b610432565b61019e61019936600461200f565b6107a9565b6040516001600160a01b03909116815260200161015a565b6101c96101c436600461203f565b61083e565b005b6101c96101d9366004612069565b610954565b61014e6101ec36600461200f565b6109db565b6101c96101ff366004612069565b610c29565b60075461019e906001600160a01b031681565b61019e61022536600461200f565b610c44565b61023d6102383660046120a5565b610ccf565b60405190815260200161015a565b61016b610d69565b6101c96102613660046120ce565b610d78565b61023d60095481565b6102bc61027d36600461200f565b60086020526000908152604090205467ffffffffffffffff8082169168010000000000000000810490911690600160801b90046001600160801b031683565b6040805167ffffffffffffffff94851681529390921660208401526001600160801b03169082015260600161015a565b6101c96102fa36600461211b565b610d87565b61016b61030d36600461200f565b610e15565b61014e6103203660046121f7565b6001600160a01b03918216600090815260056020908152604080832093909416825291909152205460ff1690565b60006001600160e01b031982166380ac58cd60e01b148061037f57506001600160e01b03198216635b5e139f60e01b145b8061039a57506301ffc9a760e01b6001600160e01b03198316145b92915050565b6060600080546103af90612221565b80601f01602080910402602001604051908101604052809291908181526020018280546103db90612221565b80156104285780601f106103fd57610100808354040283529160200191610428565b820191906000526020600020905b81548152906001019060200180831161040b57829003601f168201915b5050505050905090565b60006002600654141561048c5760405162461bcd60e51b815260206004820152601f60248201527f5265656e7472616e637947756172643a207265656e7472616e742063616c6c0060448201526064015b60405180910390fd5b60026006556001600160801b0383166104e75760405162461bcd60e51b815260206004820152601960248201527f796f752073686f756c642073656e6420736f6d657468696e67000000000000006044820152606401610483565b60006104f662093a8084612272565b63ffffffff1690506301e133808111156105525760405162461bcd60e51b815260206004820181905260248201527f796f752073686f756c64206c6f636b206c657373207468616e203120796561726044820152606401610483565b600754604051636eb1769f60e11b81523360048201523060248201526001600160801b038616916001600160a01b03169063dd62ed3e9060440160206040518083038186803b1580156105a457600080fd5b505afa1580156105b8573d6000803e3d6000fd5b505050506040513d601f19601f820116820180604052508101906105dc919061229e565b101561062a5760405162461bcd60e51b815260206004820152601160248201527f746f6b656e206e6f7420616c6c6f7765640000000000000000000000000000006044820152606401610483565b61063d33856001600160801b0316610f0e565b6106895760405162461bcd60e51b815260206004820152601360248201527f7472616e736665722066726f6d206661696c73000000000000000000000000006044820152606401610483565b600960008154610698906122b7565b9182905550600981905560408051808201909152601781527f6e657720726576656e756520736861726520746f6b656e00000000000000000060208201526106e1913391610fd7565b6040805160608101825267ffffffffffffffff428116825283811660208084019182526001600160801b03808a16858701818152600980546000908152600890955288852097518854965192518516600160801b0292881668010000000000000000026fffffffffffffffffffffffffffffffff19909716971696909617949094179091169290921790935590549251909133917f1449c6dd7851abc30abf37f57715f492010519147cc2652fbc38202c18a6ee909190a46001915050600160065592915050565b6000818152600260205260408120546001600160a01b03166108225760405162461bcd60e51b815260206004820152602c60248201527f4552433732313a20617070726f76656420717565727920666f72206e6f6e657860448201526b34b9ba32b73a103a37b5b2b760a11b6064820152608401610483565b506000908152600460205260409020546001600160a01b031690565b600061084982610c44565b9050806001600160a01b0316836001600160a01b031614156108b75760405162461bcd60e51b815260206004820152602160248201527f4552433732313a20617070726f76616c20746f2063757272656e74206f776e656044820152603960f91b6064820152608401610483565b336001600160a01b03821614806108d357506108d38133610320565b6109455760405162461bcd60e51b815260206004820152603860248201527f4552433732313a20617070726f76652063616c6c6572206973206e6f74206f7760448201527f6e6572206e6f7220617070726f76656420666f7220616c6c00000000000000006064820152608401610483565b61094f8383611055565b505050565b61095e33826110c3565b6109d05760405162461bcd60e51b815260206004820152603160248201527f4552433732313a207472616e736665722063616c6c6572206973206e6f74206f60448201527f776e6572206e6f7220617070726f7665640000000000000000000000000000006064820152608401610483565b61094f8383836111ba565b600060026006541415610a305760405162461bcd60e51b815260206004820152601f60248201527f5265656e7472616e637947756172643a207265656e7472616e742063616c6c006044820152606401610483565b600260065533610a3f83610c44565b6001600160a01b031614610aa05760405162461bcd60e51b815260206004820152602260248201527f796f7520617265206e6f7420746865206f776e6572206f662074686520746f6b60448201526132b760f11b6064820152608401610483565b60008281526008602090815260408083208151606081018352905467ffffffffffffffff808216808452680100000000000000008304909116948301859052600160801b9091046001600160801b0316928201929092529291610b02916122d2565b67ffffffffffffffff16905080421015610b5e5760405162461bcd60e51b815260206004820152601760248201527f796f757220746f6b656e206974206973206c6f636b65640000000000000000006044820152606401610483565b610b678461136e565b60008481526008602052604080822091909155820151610b919033906001600160801b0316611409565b610bdd5760405162461bcd60e51b815260206004820152601a60248201527f7472616e736665722072657761726420746f6b656e206661696c0000000000006044820152606401610483565b604080830151905185916001600160801b03169033907f92ccf450a286a957af52509bc1c9939d1a6a481783e142e41e2499f0bb66ebc690600090a46001925050506001600655919050565b61094f83838360405180602001604052806000815250610d87565b6000818152600260205260408120546001600160a01b03168061039a5760405162461bcd60e51b815260206004820152602960248201527f4552433732313a206f776e657220717565727920666f72206e6f6e657869737460448201527f656e7420746f6b656e00000000000000000000000000000000000000000000006064820152608401610483565b60006001600160a01b038216610d4d5760405162461bcd60e51b815260206004820152602a60248201527f4552433732313a2062616c616e636520717565727920666f7220746865207a6560448201527f726f2061646472657373000000000000000000000000000000000000000000006064820152608401610483565b506001600160a01b031660009081526003602052604090205490565b6060600180546103af90612221565b610d833383836114c8565b5050565b610d9133836110c3565b610e035760405162461bcd60e51b815260206004820152603160248201527f4552433732313a207472616e736665722063616c6c6572206973206e6f74206f60448201527f776e6572206e6f7220617070726f7665640000000000000000000000000000006064820152608401610483565b610e0f84848484611597565b50505050565b6000818152600260205260409020546060906001600160a01b0316610ea25760405162461bcd60e51b815260206004820152602f60248201527f4552433732314d657461646174613a2055524920717565727920666f72206e6f60448201527f6e6578697374656e7420746f6b656e00000000000000000000000000000000006064820152608401610483565b6000828152600860209081526040918290208251606081018452905467ffffffffffffffff808216808452680100000000000000008304909116938301849052600160801b9091046001600160801b03169382018490529092610f0792869290611615565b9392505050565b60006001600160a01b038316610f665760405162461bcd60e51b815260206004820152601560248201527f6d7573742062652076616c6964206164647265737300000000000000000000006044820152606401610483565b60008211610fb65760405162461bcd60e51b815260206004820152601760248201527f796f75206d7573742073656e6420736f6d657468696e670000000000000000006044820152606401610483565b600754610fce906001600160a01b0316843085611769565b50600192915050565b610fe183836117e9565b610fee600084848461192b565b61094f5760405162461bcd60e51b815260206004820152603260248201527f4552433732313a207472616e7366657220746f206e6f6e20455243373231526560448201527131b2b4bb32b91034b6b83632b6b2b73a32b960711b6064820152608401610483565b600081815260046020526040902080546001600160a01b0319166001600160a01b038416908117909155819061108a82610c44565b6001600160a01b03167f8c5be1e5ebec7d5bd14f71427d1e84f3dd0314c0f7b2291e5b200ac8c7c3b92560405160405180910390a45050565b6000818152600260205260408120546001600160a01b031661113c5760405162461bcd60e51b815260206004820152602c60248201527f4552433732313a206f70657261746f7220717565727920666f72206e6f6e657860448201526b34b9ba32b73a103a37b5b2b760a11b6064820152608401610483565b600061114783610c44565b9050806001600160a01b0316846001600160a01b031614806111825750836001600160a01b0316611177846107a9565b6001600160a01b0316145b806111b257506001600160a01b0380821660009081526005602090815260408083209388168352929052205460ff165b949350505050565b826001600160a01b03166111cd82610c44565b6001600160a01b0316146112495760405162461bcd60e51b815260206004820152602960248201527f4552433732313a207472616e73666572206f6620746f6b656e2074686174206960448201527f73206e6f74206f776e00000000000000000000000000000000000000000000006064820152608401610483565b6001600160a01b0382166112ab5760405162461bcd60e51b8152602060048201526024808201527f4552433732313a207472616e7366657220746f20746865207a65726f206164646044820152637265737360e01b6064820152608401610483565b6112b6600082611055565b6001600160a01b03831660009081526003602052604081208054600192906112df9084906122fe565b90915550506001600160a01b038216600090815260036020526040812080546001929061130d908490612315565b909155505060008181526002602052604080822080546001600160a01b0319166001600160a01b0386811691821790925591518493918716917fddf252ad1be2c89b69c2b068fc378daa952ba7f163c4a11628f55a4df523b3ef91a4505050565b600061137982610c44565b9050611386600083611055565b6001600160a01b03811660009081526003602052604081208054600192906113af9084906122fe565b909155505060008281526002602052604080822080546001600160a01b0319169055518391906001600160a01b038416907fddf252ad1be2c89b69c2b068fc378daa952ba7f163c4a11628f55a4df523b3ef908390a45050565b60006001600160a01b0383166114615760405162461bcd60e51b815260206004820152601560248201527f6d7573742062652076616c6964206164647265737300000000000000000000006044820152606401610483565b600082116114b15760405162461bcd60e51b815260206004820152601760248201527f796f75206d7573742073656e6420736f6d657468696e670000000000000000006044820152606401610483565b600754610fce906001600160a01b03168484611a83565b816001600160a01b0316836001600160a01b0316141561152a5760405162461bcd60e51b815260206004820152601960248201527f4552433732313a20617070726f766520746f2063616c6c6572000000000000006044820152606401610483565b6001600160a01b03838116600081815260056020908152604080832094871680845294825291829020805460ff191686151590811790915591519182527f17307eab39ab6107e8899845ad3d59bd9653f200f220920489ca2b5937696c31910160405180910390a3505050565b6115a28484846111ba565b6115ae8484848461192b565b610e0f5760405162461bcd60e51b815260206004820152603260248201527f4552433732313a207472616e7366657220746f206e6f6e20455243373231526560448201527131b2b4bb32b91034b6b83632b6b2b73a32b960711b6064820152608401610483565b606060405180610120016040528060fd81526020016127b560fd913990508061163d86611ab3565b60405160200161164e92919061232d565b604051602081830303815290604052905080611672856001600160801b0316611ab3565b6040516020016116839291906123c0565b6040516020818303038152906040529050806116a88467ffffffffffffffff16611ab3565b6040516020016116b9929190612453565b6040516020818303038152906040529050806116de8367ffffffffffffffff16611ab3565b6040516020016116ef9291906124e6565b6040516020818303038152906040529050600061173c61170e87611ab3565b61171784611bc9565b604051602001611728929190612568565b604051602081830303815290604052611bc9565b90508060405160200161174f919061266a565b604051602081830303815290604052915050949350505050565b6040516001600160a01b0380851660248301528316604482015260648101829052610e0f9085906323b872dd60e01b906084015b60408051601f198184030181529190526020810180517bffffffffffffffffffffffffffffffffffffffffffffffffffffffff166001600160e01b031990931692909217909152611d2f565b6001600160a01b03821661183f5760405162461bcd60e51b815260206004820181905260248201527f4552433732313a206d696e7420746f20746865207a65726f20616464726573736044820152606401610483565b6000818152600260205260409020546001600160a01b0316156118a45760405162461bcd60e51b815260206004820152601c60248201527f4552433732313a20746f6b656e20616c7265616479206d696e746564000000006044820152606401610483565b6001600160a01b03821660009081526003602052604081208054600192906118cd908490612315565b909155505060008181526002602052604080822080546001600160a01b0319166001600160a01b03861690811790915590518392907fddf252ad1be2c89b69c2b068fc378daa952ba7f163c4a11628f55a4df523b3ef908290a45050565b60006001600160a01b0384163b15611a7857604051630a85bd0160e11b81526001600160a01b0385169063150b7a029061196f9033908990889088906004016126af565b602060405180830381600087803b15801561198957600080fd5b505af19250505080156119b9575060408051601f3d908101601f191682019092526119b6918101906126eb565b60015b611a5e573d8080156119e7576040519150601f19603f3d011682016040523d82523d6000602084013e6119ec565b606091505b508051611a565760405162461bcd60e51b815260206004820152603260248201527f4552433732313a207472616e7366657220746f206e6f6e20455243373231526560448201527131b2b4bb32b91034b6b83632b6b2b73a32b960711b6064820152608401610483565b805181602001fd5b6001600160e01b031916630a85bd0160e11b1490506111b2565b506001949350505050565b6040516001600160a01b03831660248201526044810182905261094f90849063a9059cbb60e01b9060640161179d565b606081611ad75750506040805180820190915260018152600360fc1b602082015290565b8160005b8115611b015780611aeb816122b7565b9150611afa9050600a8361271e565b9150611adb565b60008167ffffffffffffffff811115611b1c57611b1c612105565b6040519080825280601f01601f191660200182016040528015611b46576020820181803683370190505b5090505b84156111b257611b5b6001836122fe565b9150611b68600a86612732565b611b73906030612315565b60f81b818381518110611b8857611b88612746565b60200101907effffffffffffffffffffffffffffffffffffffffffffffffffffffffffffff1916908160001a905350611bc2600a8661271e565b9450611b4a565b805160609080611be9575050604080516020810190915260008152919050565b60006003611bf8836002612315565b611c02919061271e565b611c0d90600461275c565b90506000611c1c826020612315565b67ffffffffffffffff811115611c3457611c34612105565b6040519080825280601f01601f191660200182016040528015611c5e576020820181803683370190505b50905060006040518060600160405280604081526020016128b2604091399050600181016020830160005b86811015611cea576003818a01810151603f601282901c8116860151600c83901c8216870151600684901c831688015192909316870151600891821b60ff94851601821b92841692909201901b91160160e01b835260049092019101611c89565b506003860660018114611d045760028114611d1557611d21565b613d3d60f01b600119830152611d21565b603d60f81b6000198301525b505050918152949350505050565b6000611d84826040518060400160405280602081526020017f5361666545524332303a206c6f772d6c6576656c2063616c6c206661696c6564815250856001600160a01b0316611e149092919063ffffffff16565b80519091501561094f5780806020019051810190611da2919061277b565b61094f5760405162461bcd60e51b815260206004820152602a60248201527f5361666545524332303a204552433230206f7065726174696f6e20646964206e60448201527f6f742073756363656564000000000000000000000000000000000000000000006064820152608401610483565b60606111b2848460008585843b611e6d5760405162461bcd60e51b815260206004820152601d60248201527f416464726573733a2063616c6c20746f206e6f6e2d636f6e74726163740000006044820152606401610483565b600080866001600160a01b03168587604051611e899190612798565b60006040518083038185875af1925050503d8060008114611ec6576040519150601f19603f3d011682016040523d82523d6000602084013e611ecb565b606091505b5091509150611edb828286611ee6565b979650505050505050565b60608315611ef5575081610f07565b825115611f055782518084602001fd5b8160405162461bcd60e51b81526004016104839190611fad565b6001600160e01b031981168114611f3557600080fd5b50565b600060208284031215611f4a57600080fd5b8135610f0781611f1f565b60005b83811015611f70578181015183820152602001611f58565b83811115610e0f5750506000910152565b60008151808452611f99816020860160208601611f55565b601f01601f19169290920160200192915050565b602081526000610f076020830184611f81565b80356001600160801b0381168114611fd757600080fd5b919050565b60008060408385031215611fef57600080fd5b611ff883611fc0565b915061200660208401611fc0565b90509250929050565b60006020828403121561202157600080fd5b5035919050565b80356001600160a01b0381168114611fd757600080fd5b6000806040838503121561205257600080fd5b61205b83612028565b946020939093013593505050565b60008060006060848603121561207e57600080fd5b61208784612028565b925061209560208501612028565b9150604084013590509250925092565b6000602082840312156120b757600080fd5b610f0782612028565b8015158114611f3557600080fd5b600080604083850312156120e157600080fd5b6120ea83612028565b915060208301356120fa816120c0565b809150509250929050565b634e487b7160e01b600052604160045260246000fd5b6000806000806080858703121561213157600080fd5b61213a85612028565b935061214860208601612028565b925060408501359150606085013567ffffffffffffffff8082111561216c57600080fd5b818701915087601f83011261218057600080fd5b81358181111561219257612192612105565b604051601f8201601f19908116603f011681019083821181831017156121ba576121ba612105565b816040528281528a60208487010111156121d357600080fd5b82602086016020830137600060208483010152809550505050505092959194509250565b6000806040838503121561220a57600080fd5b61221383612028565b915061200660208401612028565b600181811c9082168061223557607f821691505b6020821081141561225657634e487b7160e01b600052602260045260246000fd5b50919050565b634e487b7160e01b600052601160045260246000fd5b600063ffffffff808316818516818304811182151516156122955761229561225c565b02949350505050565b6000602082840312156122b057600080fd5b5051919050565b60006000198214156122cb576122cb61225c565b5060010190565b600067ffffffffffffffff8083168185168083038211156122f5576122f561225c565b01949350505050565b6000828210156123105761231061225c565b500390565b600082198211156123285761232861225c565b500190565b6000835161233f818460208801611f55565b7f746f6b656e3a20000000000000000000000000000000000000000000000000009083019081528351612379816007840160208801611f55565b7f3c2f746578743e3c7465787420783d2231302220793d2234302220636c61737360079290910191820152671e913130b9b2911f60c11b6027820152602f01949350505050565b600083516123d2818460208801611f55565b7f616d6f756e743a20000000000000000000000000000000000000000000000000908301908152835161240c816008840160208801611f55565b7f3c2f746578743e3c7465787420783d2231302220793d2236302220636c61737360089290910191820152671e913130b9b2911f60c11b6028820152603001949350505050565b60008351612465818460208801611f55565b7f637265617465645f74696d653a20000000000000000000000000000000000000908301908152835161249f81600e840160208801611f55565b7f3c2f746578743e3c7465787420783d2231302220793d2238302220636c617373600e9290910191820152671e913130b9b2911f60c11b602e820152603601949350505050565b600083516124f8818460208801611f55565b7f6c6f636b65645f74696d653a2000000000000000000000000000000000000000908301908152835161253281600d840160208801611f55565b7f3c2f746578743e3c2f7376673e00000000000000000000000000000000000000600d9290910191820152601a01949350505050565b7f7b226e616d65223a20226c6f636b2023000000000000000000000000000000008152600083516125a0816010850160208801611f55565b7f222c20226465736372697074696f6e223a20224e465420526576656e756520736010918401918201527f686172652c2063616e206265207573656420746f20726563656976652070617360308201527f7369766520696e636f6d65222c2022696d616765223a2022646174613a696d6160508201527f67652f7376672b786d6c3b6261736536342c00000000000000000000000000006070820152835161264f816082840160208801611f55565b61227d60f01b60829290910191820152608401949350505050565b7f646174613a6170706c69636174696f6e2f6a736f6e3b6261736536342c0000008152600082516126a281601d850160208701611f55565b91909101601d0192915050565b60006001600160a01b038087168352808616602084015250836040830152608060608301526126e16080830184611f81565b9695505050505050565b6000602082840312156126fd57600080fd5b8151610f0781611f1f565b634e487b7160e01b600052601260045260246000fd5b60008261272d5761272d612708565b500490565b60008261274157612741612708565b500690565b634e487b7160e01b600052603260045260246000fd5b60008160001904831182151516156127765761277661225c565b500290565b60006020828403121561278d57600080fd5b8151610f07816120c0565b600082516127aa818460208701611f55565b919091019291505056fe3c73766720786d6c6e733d22687474703a2f2f7777772e77332e6f72672f323030302f73766722207072657365727665417370656374526174696f3d22784d696e594d696e206d656574222076696577426f783d223020302033353020333530223e3c7374796c653e2e62617365207b2066696c6c3a2077686974653b20666f6e742d66616d696c793a2073657269663b20666f6e742d73697a653a20313470783b207d3c2f7374796c653e3c726563742077696474683d223130302522206865696768743d2231303025222066696c6c3d22626c61636b22202f3e3c7465787420783d2231302220793d2232302220636c6173733d2262617365223e4142434445464748494a4b4c4d4e4f505152535455565758595a6162636465666768696a6b6c6d6e6f707172737475767778797a303132333435363738392b2fa164736f6c6343000809000a",
  "linkReferences": {},
  "deployedLinkReferences": {}
}