{
  "_format": "hh-sol-artifact-1",
  "contractName": "RevenueShare",
  "sourceName": "contracts/RevenueShare.sol",
  "abi": [
    {
      "inputs": [
        {
          "internalType": "string",
          "name": "name_",
          "type": "string"
        },
        {
          "internalType": "string",
          "name": "symbol_",
          "type": "string"
        },
        {
          "internalType": "address",
          "name": "projectToken_",
          "type": "address"
        },
        {
          "internalType": "address",
          "name": "rewardToken_",
          "type": "address"
        }
      ],
      "stateMutability": "nonpayable",
      "type": "constructor"
    },
    {
      "anonymous": false,
      "inputs": [
        {
          "indexed": true,
          "internalType": "address",
          "name": "owner",
          "type": "address"
        },
        {
          "indexed": true,
          "internalType": "address",
          "name": "approved",
          "type": "address"
        },
        {
          "indexed": true,
          "internalType": "uint256",
          "name": "tokenId",
          "type": "uint256"
        }
      ],
      "name": "Approval",
      "type": "event"
    },
    {
      "anonymous": false,
      "inputs": [
        {
          "indexed": true,
          "internalType": "address",
          "name": "owner",
          "type": "address"
        },
        {
          "indexed": true,
          "internalType": "address",
          "name": "operator",
          "type": "address"
        },
        {
          "indexed": false,
          "internalType": "bool",
          "name": "approved",
          "type": "bool"
        }
      ],
      "name": "ApprovalForAll",
      "type": "event"
    },
    {
      "anonymous": false,
      "inputs": [
        {
          "indexed": true,
          "internalType": "address",
          "name": "from",
          "type": "address"
        },
        {
          "indexed": true,
          "internalType": "address",
          "name": "to",
          "type": "address"
        },
        {
          "indexed": true,
          "internalType": "uint256",
          "name": "tokenId",
          "type": "uint256"
        }
      ],
      "name": "Transfer",
      "type": "event"
    },
    {
      "inputs": [],
      "name": "_projectToken",
      "outputs": [
        {
          "internalType": "address",
          "name": "",
          "type": "address"
        }
      ],
      "stateMutability": "view",
      "type": "function"
    },
    {
      "inputs": [],
      "name": "_rewardToken",
      "outputs": [
        {
          "internalType": "address",
          "name": "",
          "type": "address"
        }
      ],
      "stateMutability": "view",
      "type": "function"
    },
    {
      "inputs": [
        {
          "internalType": "address",
          "name": "to",
          "type": "address"
        },
        {
          "internalType": "uint256",
          "name": "tokenId",
          "type": "uint256"
        }
      ],
      "name": "approve",
      "outputs": [],
      "stateMutability": "nonpayable",
      "type": "function"
    },
    {
      "inputs": [
        {
          "internalType": "address",
          "name": "owner",
          "type": "address"
        }
      ],
      "name": "balanceOf",
      "outputs": [
        {
          "internalType": "uint256",
          "name": "",
          "type": "uint256"
        }
      ],
      "stateMutability": "view",
      "type": "function"
    },
    {
      "inputs": [
        {
          "internalType": "uint256",
          "name": "tokenId",
          "type": "uint256"
        }
      ],
      "name": "getApproved",
      "outputs": [
        {
          "internalType": "address",
          "name": "",
          "type": "address"
        }
      ],
      "stateMutability": "view",
      "type": "function"
    },
    {
      "inputs": [
        {
          "internalType": "address",
          "name": "owner",
          "type": "address"
        },
        {
          "internalType": "address",
          "name": "operator",
          "type": "address"
        }
      ],
      "name": "isApprovedForAll",
      "outputs": [
        {
          "internalType": "bool",
          "name": "",
          "type": "bool"
        }
      ],
      "stateMutability": "view",
      "type": "function"
    },
    {
      "inputs": [],
      "name": "name",
      "outputs": [
        {
          "internalType": "string",
          "name": "",
          "type": "string"
        }
      ],
      "stateMutability": "view",
      "type": "function"
    },
    {
      "inputs": [
        {
          "internalType": "uint256",
          "name": "tokenId",
          "type": "uint256"
        }
      ],
      "name": "ownerOf",
      "outputs": [
        {
          "internalType": "address",
          "name": "",
          "type": "address"
        }
      ],
      "stateMutability": "view",
      "type": "function"
    },
    {
      "inputs": [
        {
          "internalType": "uint256",
          "name": "",
          "type": "uint256"
        }
      ],
      "name": "revToken",
      "outputs": [
        {
          "internalType": "uint64",
          "name": "created",
          "type": "uint64"
        },
        {
          "internalType": "uint64",
          "name": "locked",
          "type": "uint64"
        },
        {
          "internalType": "uint128",
          "name": "amount",
          "type": "uint128"
        }
      ],
      "stateMutability": "view",
      "type": "function"
    },
    {
      "inputs": [],
      "name": "rsId",
      "outputs": [
        {
          "internalType": "uint256",
          "name": "",
          "type": "uint256"
        }
      ],
      "stateMutability": "view",
      "type": "function"
    },
    {
      "inputs": [
        {
          "internalType": "address",
          "name": "from",
          "type": "address"
        },
        {
          "internalType": "address",
          "name": "to",
          "type": "address"
        },
        {
          "internalType": "uint256",
          "name": "tokenId",
          "type": "uint256"
        }
      ],
      "name": "safeTransferFrom",
      "outputs": [],
      "stateMutability": "nonpayable",
      "type": "function"
    },
    {
      "inputs": [
        {
          "internalType": "address",
          "name": "from",
          "type": "address"
        },
        {
          "internalType": "address",
          "name": "to",
          "type": "address"
        },
        {
          "internalType": "uint256",
          "name": "tokenId",
          "type": "uint256"
        },
        {
          "internalType": "bytes",
          "name": "_data",
          "type": "bytes"
        }
      ],
      "name": "safeTransferFrom",
      "outputs": [],
      "stateMutability": "nonpayable",
      "type": "function"
    },
    {
      "inputs": [
        {
          "internalType": "address",
          "name": "operator",
          "type": "address"
        },
        {
          "internalType": "bool",
          "name": "approved",
          "type": "bool"
        }
      ],
      "name": "setApprovalForAll",
      "outputs": [],
      "stateMutability": "nonpayable",
      "type": "function"
    },
    {
      "inputs": [
        {
          "internalType": "uint128",
          "name": "amount",
          "type": "uint128"
        },
        {
          "internalType": "uint128",
          "name": "lock",
          "type": "uint128"
        }
      ],
      "name": "stake",
      "outputs": [
        {
          "internalType": "bool",
          "name": "",
          "type": "bool"
        }
      ],
      "stateMutability": "nonpayable",
      "type": "function"
    },
    {
      "inputs": [
        {
          "internalType": "bytes4",
          "name": "interfaceId",
          "type": "bytes4"
        }
      ],
      "name": "supportsInterface",
      "outputs": [
        {
          "internalType": "bool",
          "name": "",
          "type": "bool"
        }
      ],
      "stateMutability": "view",
      "type": "function"
    },
    {
      "inputs": [],
      "name": "symbol",
      "outputs": [
        {
          "internalType": "string",
          "name": "",
          "type": "string"
        }
      ],
      "stateMutability": "view",
      "type": "function"
    },
    {
      "inputs": [
        {
          "internalType": "uint256",
          "name": "tokenId",
          "type": "uint256"
        }
      ],
      "name": "tokenURI",
      "outputs": [
        {
          "internalType": "string",
          "name": "",
          "type": "string"
        }
      ],
      "stateMutability": "view",
      "type": "function"
    },
    {
      "inputs": [
        {
          "internalType": "address",
          "name": "from",
          "type": "address"
        },
        {
          "internalType": "address",
          "name": "to",
          "type": "address"
        },
        {
          "internalType": "uint256",
          "name": "tokenId",
          "type": "uint256"
        }
      ],
      "name": "transferFrom",
      "outputs": [],
      "stateMutability": "nonpayable",
      "type": "function"
    },
    {
      "inputs": [
        {
          "internalType": "uint256",
          "name": "tokenId",
          "type": "uint256"
        }
      ],
      "name": "withdraw",
      "outputs": [
        {
          "internalType": "bool",
          "name": "",
          "type": "bool"
        }
      ],
      "stateMutability": "nonpayable",
      "type": "function"
    }
  ],
  "bytecode": "0x60806040523480156200001157600080fd5b5060405162002d2338038062002d2383398101604081905262000034916200036e565b8351849084906200004d906000906020850190620001de565b50805162000063906001906020840190620001de565b50506001600655508351620000b45760405162461bcd60e51b815260206004820152601260248201527173686f756c6420686176652061206e616d6560701b60448201526064015b60405180910390fd5b6000835111620001075760405162461bcd60e51b815260206004820152601460248201527f73686f756c64206861766520612073796d626f6c0000000000000000000000006044820152606401620000ab565b6001600160a01b038216620001585760405162461bcd60e51b8152602060048201526021602482015260008051602062002d038339815191526044820152607360f81b6064820152608401620000ab565b6001600160a01b038116620001a95760405162461bcd60e51b8152602060048201526021602482015260008051602062002d038339815191526044820152607360f81b6064820152608401620000ab565b600780546001600160a01b039384166001600160a01b03199182161790915560088054929093169116179055506200043a9050565b828054620001ec90620003fd565b90600052602060002090601f0160209004810192826200021057600085556200025b565b82601f106200022b57805160ff19168380011785556200025b565b828001600101855582156200025b579182015b828111156200025b5782518255916020019190600101906200023e565b50620002699291506200026d565b5090565b5b808211156200026957600081556001016200026e565b634e487b7160e01b600052604160045260246000fd5b600082601f830112620002ac57600080fd5b81516001600160401b0380821115620002c957620002c962000284565b604051601f8301601f19908116603f01168101908282118183101715620002f457620002f462000284565b816040528381526020925086838588010111156200031157600080fd5b600091505b8382101562000335578582018301518183018401529082019062000316565b83821115620003475760008385830101525b9695505050505050565b80516001600160a01b03811681146200036957600080fd5b919050565b600080600080608085870312156200038557600080fd5b84516001600160401b03808211156200039d57600080fd5b620003ab888389016200029a565b95506020870151915080821115620003c257600080fd5b50620003d1878288016200029a565b935050620003e26040860162000351565b9150620003f26060860162000351565b905092959194509250565b600181811c908216806200041257607f821691505b602082108114156200043457634e487b7160e01b600052602260045260246000fd5b50919050565b6128b9806200044a6000396000f3fe608060405234801561001057600080fd5b50600436106101515760003560e01c806370a08231116100cd578063b59c6e0e11610081578063b88d4fde11610066578063b88d4fde1461031a578063c87b56dd1461032d578063e985e9c51461034057600080fd5b8063b59c6e0e1461028a578063b702ab111461029d57600080fd5b80639bbaf128116100b25780639bbaf1281461025b578063a22cb4651461026e578063a604b1011461028157600080fd5b806370a082311461023257806395d89b411461025357600080fd5b8063095ea7b3116101245780632e1a7d4d116101095780632e1a7d4d146101f957806342842e0e1461020c5780636352211e1461021f57600080fd5b8063095ea7b3146101d157806323b872dd146101e657600080fd5b806301ffc9a71461015657806306fdde031461017e57806307fd876314610193578063081812fc146101a6575b600080fd5b610169610164366004611ef3565b61037c565b60405190151581526020015b60405180910390f35b6101866103ce565b6040516101759190611f68565b6101696101a1366004611f97565b610460565b6101b96101b4366004611fca565b6107a0565b6040516001600160a01b039091168152602001610175565b6101e46101df366004611ffa565b610835565b005b6101e46101f4366004612024565b61094b565b610169610207366004611fca565b6109d2565b6101e461021a366004612024565b610be4565b6101b961022d366004611fca565b610bff565b610245610240366004612060565b610c8a565b604051908152602001610175565b610186610d24565b6007546101b9906001600160a01b031681565b6101e461027c366004612089565b610d33565b610245600a5481565b6008546101b9906001600160a01b031681565b6102ea6102ab366004611fca565b60096020526000908152604090205467ffffffffffffffff8082169168010000000000000000810490911690600160801b90046001600160801b031683565b6040805167ffffffffffffffff94851681529390921660208401526001600160801b031690820152606001610175565b6101e46103283660046120d6565b610d42565b61018661033b366004611fca565b610dd0565b61016961034e3660046121b2565b6001600160a01b03918216600090815260056020908152604080832093909416825291909152205460ff1690565b60006001600160e01b031982166380ac58cd60e01b14806103ad57506001600160e01b03198216635b5e139f60e01b145b806103c857506301ffc9a760e01b6001600160e01b03198316145b92915050565b6060600080546103dd906121dc565b80601f0160208091040260200160405190810160405280929190818152602001828054610409906121dc565b80156104565780601f1061042b57610100808354040283529160200191610456565b820191906000526020600020905b81548152906001019060200180831161043957829003601f168201915b5050505050905090565b6000600260065414156104ba5760405162461bcd60e51b815260206004820152601f60248201527f5265656e7472616e637947756172643a207265656e7472616e742063616c6c0060448201526064015b60405180910390fd5b60026006556001600160801b0383166105155760405162461bcd60e51b815260206004820152601960248201527f796f752073686f756c642073656e6420736f6d657468696e670000000000000060448201526064016104b1565b600061052462093a808461222d565b63ffffffff1690506301e133808111156105805760405162461bcd60e51b815260206004820181905260248201527f796f752073686f756c64206c6f636b206c657373207468616e2031207965617260448201526064016104b1565b600754604051636eb1769f60e11b81523360048201523060248201526001600160801b038616916001600160a01b03169063dd62ed3e9060440160206040518083038186803b1580156105d257600080fd5b505afa1580156105e6573d6000803e3d6000fd5b505050506040513d601f19601f8201168201806040525081019061060a9190612259565b10156106585760405162461bcd60e51b815260206004820152601160248201527f746f6b656e206e6f7420616c6c6f77656400000000000000000000000000000060448201526064016104b1565b61066b33856001600160801b0316610ec9565b6106b75760405162461bcd60e51b815260206004820152601360248201527f7472616e736665722066726f6d206661696c730000000000000000000000000060448201526064016104b1565b6000600a600081546106c890612272565b919050819055905061071033826040518060400160405280601781526020017f6e657720726576656e756520736861726520746f6b656e000000000000000000815250610f92565b6040805160608101825267ffffffffffffffff428116825293841660208083019182526001600160801b03808a16848601908152600096875260099092529390942091518254915194518416600160801b0294861668010000000000000000026fffffffffffffffffffffffffffffffff1990921695169490941793909317161790555060018060065592915050565b6000818152600260205260408120546001600160a01b03166108195760405162461bcd60e51b815260206004820152602c60248201527f4552433732313a20617070726f76656420717565727920666f72206e6f6e657860448201526b34b9ba32b73a103a37b5b2b760a11b60648201526084016104b1565b506000908152600460205260409020546001600160a01b031690565b600061084082610bff565b9050806001600160a01b0316836001600160a01b031614156108ae5760405162461bcd60e51b815260206004820152602160248201527f4552433732313a20617070726f76616c20746f2063757272656e74206f776e656044820152603960f91b60648201526084016104b1565b336001600160a01b03821614806108ca57506108ca813361034e565b61093c5760405162461bcd60e51b815260206004820152603860248201527f4552433732313a20617070726f76652063616c6c6572206973206e6f74206f7760448201527f6e6572206e6f7220617070726f76656420666f7220616c6c000000000000000060648201526084016104b1565b6109468383611010565b505050565b610955338261107e565b6109c75760405162461bcd60e51b815260206004820152603160248201527f4552433732313a207472616e736665722063616c6c6572206973206e6f74206f60448201527f776e6572206e6f7220617070726f76656400000000000000000000000000000060648201526084016104b1565b610946838383611175565b600060026006541415610a275760405162461bcd60e51b815260206004820152601f60248201527f5265656e7472616e637947756172643a207265656e7472616e742063616c6c0060448201526064016104b1565b600260065533610a3683610bff565b6001600160a01b031614610a975760405162461bcd60e51b815260206004820152602260248201527f796f7520617265206e6f7420746865206f776e6572206f662074686520746f6b60448201526132b760f11b60648201526084016104b1565b60008281526009602090815260408083208151606081018352905467ffffffffffffffff808216808452680100000000000000008304909116948301859052600160801b9091046001600160801b0316928201929092529291610af99161228d565b67ffffffffffffffff16905080421015610b555760405162461bcd60e51b815260206004820152601760248201527f796f757220746f6b656e206974206973206c6f636b656400000000000000000060448201526064016104b1565b610b5e84611329565b60008481526009602052604080822091909155820151610b889033906001600160801b03166113c4565b610bd45760405162461bcd60e51b815260206004820152601a60248201527f7472616e736665722072657761726420746f6b656e206661696c00000000000060448201526064016104b1565b6001925050506001600655919050565b61094683838360405180602001604052806000815250610d42565b6000818152600260205260408120546001600160a01b0316806103c85760405162461bcd60e51b815260206004820152602960248201527f4552433732313a206f776e657220717565727920666f72206e6f6e657869737460448201527f656e7420746f6b656e000000000000000000000000000000000000000000000060648201526084016104b1565b60006001600160a01b038216610d085760405162461bcd60e51b815260206004820152602a60248201527f4552433732313a2062616c616e636520717565727920666f7220746865207a6560448201527f726f20616464726573730000000000000000000000000000000000000000000060648201526084016104b1565b506001600160a01b031660009081526003602052604090205490565b6060600180546103dd906121dc565b610d3e338383611483565b5050565b610d4c338361107e565b610dbe5760405162461bcd60e51b815260206004820152603160248201527f4552433732313a207472616e736665722063616c6c6572206973206e6f74206f60448201527f776e6572206e6f7220617070726f76656400000000000000000000000000000060648201526084016104b1565b610dca84848484611552565b50505050565b6000818152600260205260409020546060906001600160a01b0316610e5d5760405162461bcd60e51b815260206004820152602f60248201527f4552433732314d657461646174613a2055524920717565727920666f72206e6f60448201527f6e6578697374656e7420746f6b656e000000000000000000000000000000000060648201526084016104b1565b6000828152600960209081526040918290208251606081018452905467ffffffffffffffff808216808452680100000000000000008304909116938301849052600160801b9091046001600160801b03169382018490529092610ec2928692906115d0565b9392505050565b60006001600160a01b038316610f215760405162461bcd60e51b815260206004820152601560248201527f6d7573742062652076616c69642061646472657373000000000000000000000060448201526064016104b1565b60008211610f715760405162461bcd60e51b815260206004820152601760248201527f796f75206d7573742073656e6420736f6d657468696e6700000000000000000060448201526064016104b1565b600754610f89906001600160a01b0316843085611724565b50600192915050565b610f9c83836117a4565b610fa960008484846118e6565b6109465760405162461bcd60e51b815260206004820152603260248201527f4552433732313a207472616e7366657220746f206e6f6e20455243373231526560448201527131b2b4bb32b91034b6b83632b6b2b73a32b960711b60648201526084016104b1565b600081815260046020526040902080546001600160a01b0319166001600160a01b038416908117909155819061104582610bff565b6001600160a01b03167f8c5be1e5ebec7d5bd14f71427d1e84f3dd0314c0f7b2291e5b200ac8c7c3b92560405160405180910390a45050565b6000818152600260205260408120546001600160a01b03166110f75760405162461bcd60e51b815260206004820152602c60248201527f4552433732313a206f70657261746f7220717565727920666f72206e6f6e657860448201526b34b9ba32b73a103a37b5b2b760a11b60648201526084016104b1565b600061110283610bff565b9050806001600160a01b0316846001600160a01b0316148061113d5750836001600160a01b0316611132846107a0565b6001600160a01b0316145b8061116d57506001600160a01b0380821660009081526005602090815260408083209388168352929052205460ff165b949350505050565b826001600160a01b031661118882610bff565b6001600160a01b0316146112045760405162461bcd60e51b815260206004820152602960248201527f4552433732313a207472616e73666572206f6620746f6b656e2074686174206960448201527f73206e6f74206f776e000000000000000000000000000000000000000000000060648201526084016104b1565b6001600160a01b0382166112665760405162461bcd60e51b8152602060048201526024808201527f4552433732313a207472616e7366657220746f20746865207a65726f206164646044820152637265737360e01b60648201526084016104b1565b611271600082611010565b6001600160a01b038316600090815260036020526040812080546001929061129a9084906122b9565b90915550506001600160a01b03821660009081526003602052604081208054600192906112c89084906122d0565b909155505060008181526002602052604080822080546001600160a01b0319166001600160a01b0386811691821790925591518493918716917fddf252ad1be2c89b69c2b068fc378daa952ba7f163c4a11628f55a4df523b3ef91a4505050565b600061133482610bff565b9050611341600083611010565b6001600160a01b038116600090815260036020526040812080546001929061136a9084906122b9565b909155505060008281526002602052604080822080546001600160a01b0319169055518391906001600160a01b038416907fddf252ad1be2c89b69c2b068fc378daa952ba7f163c4a11628f55a4df523b3ef908390a45050565b60006001600160a01b03831661141c5760405162461bcd60e51b815260206004820152601560248201527f6d7573742062652076616c69642061646472657373000000000000000000000060448201526064016104b1565b6000821161146c5760405162461bcd60e51b815260206004820152601760248201527f796f75206d7573742073656e6420736f6d657468696e6700000000000000000060448201526064016104b1565b600854610f89906001600160a01b03168484611a3e565b816001600160a01b0316836001600160a01b031614156114e55760405162461bcd60e51b815260206004820152601960248201527f4552433732313a20617070726f766520746f2063616c6c65720000000000000060448201526064016104b1565b6001600160a01b03838116600081815260056020908152604080832094871680845294825291829020805460ff191686151590811790915591519182527f17307eab39ab6107e8899845ad3d59bd9653f200f220920489ca2b5937696c31910160405180910390a3505050565b61155d848484611175565b611569848484846118e6565b610dca5760405162461bcd60e51b815260206004820152603260248201527f4552433732313a207472616e7366657220746f206e6f6e20455243373231526560448201527131b2b4bb32b91034b6b83632b6b2b73a32b960711b60648201526084016104b1565b606060405180610120016040528060fd815260200161277060fd91399050806115f886611a6e565b6040516020016116099291906122e8565b60405160208183030381529060405290508061162d856001600160801b0316611a6e565b60405160200161163e92919061237b565b6040516020818303038152906040529050806116638467ffffffffffffffff16611a6e565b60405160200161167492919061240e565b6040516020818303038152906040529050806116998367ffffffffffffffff16611a6e565b6040516020016116aa9291906124a1565b604051602081830303815290604052905060006116f76116c987611a6e565b6116d284611b84565b6040516020016116e3929190612523565b604051602081830303815290604052611b84565b90508060405160200161170a9190612625565b604051602081830303815290604052915050949350505050565b6040516001600160a01b0380851660248301528316604482015260648101829052610dca9085906323b872dd60e01b906084015b60408051601f198184030181529190526020810180517bffffffffffffffffffffffffffffffffffffffffffffffffffffffff166001600160e01b031990931692909217909152611cea565b6001600160a01b0382166117fa5760405162461bcd60e51b815260206004820181905260248201527f4552433732313a206d696e7420746f20746865207a65726f206164647265737360448201526064016104b1565b6000818152600260205260409020546001600160a01b03161561185f5760405162461bcd60e51b815260206004820152601c60248201527f4552433732313a20746f6b656e20616c7265616479206d696e7465640000000060448201526064016104b1565b6001600160a01b03821660009081526003602052604081208054600192906118889084906122d0565b909155505060008181526002602052604080822080546001600160a01b0319166001600160a01b03861690811790915590518392907fddf252ad1be2c89b69c2b068fc378daa952ba7f163c4a11628f55a4df523b3ef908290a45050565b60006001600160a01b0384163b15611a3357604051630a85bd0160e11b81526001600160a01b0385169063150b7a029061192a90339089908890889060040161266a565b602060405180830381600087803b15801561194457600080fd5b505af1925050508015611974575060408051601f3d908101601f19168201909252611971918101906126a6565b60015b611a19573d8080156119a2576040519150601f19603f3d011682016040523d82523d6000602084013e6119a7565b606091505b508051611a115760405162461bcd60e51b815260206004820152603260248201527f4552433732313a207472616e7366657220746f206e6f6e20455243373231526560448201527131b2b4bb32b91034b6b83632b6b2b73a32b960711b60648201526084016104b1565b805181602001fd5b6001600160e01b031916630a85bd0160e11b14905061116d565b506001949350505050565b6040516001600160a01b03831660248201526044810182905261094690849063a9059cbb60e01b90606401611758565b606081611a925750506040805180820190915260018152600360fc1b602082015290565b8160005b8115611abc5780611aa681612272565b9150611ab59050600a836126d9565b9150611a96565b60008167ffffffffffffffff811115611ad757611ad76120c0565b6040519080825280601f01601f191660200182016040528015611b01576020820181803683370190505b5090505b841561116d57611b166001836122b9565b9150611b23600a866126ed565b611b2e9060306122d0565b60f81b818381518110611b4357611b43612701565b60200101907effffffffffffffffffffffffffffffffffffffffffffffffffffffffffffff1916908160001a905350611b7d600a866126d9565b9450611b05565b805160609080611ba4575050604080516020810190915260008152919050565b60006003611bb38360026122d0565b611bbd91906126d9565b611bc8906004612717565b90506000611bd78260206122d0565b67ffffffffffffffff811115611bef57611bef6120c0565b6040519080825280601f01601f191660200182016040528015611c19576020820181803683370190505b509050600060405180606001604052806040815260200161286d604091399050600181016020830160005b86811015611ca5576003818a01810151603f601282901c8116860151600c83901c8216870151600684901c831688015192909316870151600891821b60ff94851601821b92841692909201901b91160160e01b835260049092019101611c44565b506003860660018114611cbf5760028114611cd057611cdc565b613d3d60f01b600119830152611cdc565b603d60f81b6000198301525b505050918152949350505050565b6000611d3f826040518060400160405280602081526020017f5361666545524332303a206c6f772d6c6576656c2063616c6c206661696c6564815250856001600160a01b0316611dcf9092919063ffffffff16565b8051909150156109465780806020019051810190611d5d9190612736565b6109465760405162461bcd60e51b815260206004820152602a60248201527f5361666545524332303a204552433230206f7065726174696f6e20646964206e60448201527f6f7420737563636565640000000000000000000000000000000000000000000060648201526084016104b1565b606061116d848460008585843b611e285760405162461bcd60e51b815260206004820152601d60248201527f416464726573733a2063616c6c20746f206e6f6e2d636f6e747261637400000060448201526064016104b1565b600080866001600160a01b03168587604051611e449190612753565b60006040518083038185875af1925050503d8060008114611e81576040519150601f19603f3d011682016040523d82523d6000602084013e611e86565b606091505b5091509150611e96828286611ea1565b979650505050505050565b60608315611eb0575081610ec2565b825115611ec05782518084602001fd5b8160405162461bcd60e51b81526004016104b19190611f68565b6001600160e01b031981168114611ef057600080fd5b50565b600060208284031215611f0557600080fd5b8135610ec281611eda565b60005b83811015611f2b578181015183820152602001611f13565b83811115610dca5750506000910152565b60008151808452611f54816020860160208601611f10565b601f01601f19169290920160200192915050565b602081526000610ec26020830184611f3c565b80356001600160801b0381168114611f9257600080fd5b919050565b60008060408385031215611faa57600080fd5b611fb383611f7b565b9150611fc160208401611f7b565b90509250929050565b600060208284031215611fdc57600080fd5b5035919050565b80356001600160a01b0381168114611f9257600080fd5b6000806040838503121561200d57600080fd5b61201683611fe3565b946020939093013593505050565b60008060006060848603121561203957600080fd5b61204284611fe3565b925061205060208501611fe3565b9150604084013590509250925092565b60006020828403121561207257600080fd5b610ec282611fe3565b8015158114611ef057600080fd5b6000806040838503121561209c57600080fd5b6120a583611fe3565b915060208301356120b58161207b565b809150509250929050565b634e487b7160e01b600052604160045260246000fd5b600080600080608085870312156120ec57600080fd5b6120f585611fe3565b935061210360208601611fe3565b925060408501359150606085013567ffffffffffffffff8082111561212757600080fd5b818701915087601f83011261213b57600080fd5b81358181111561214d5761214d6120c0565b604051601f8201601f19908116603f01168101908382118183101715612175576121756120c0565b816040528281528a602084870101111561218e57600080fd5b82602086016020830137600060208483010152809550505050505092959194509250565b600080604083850312156121c557600080fd5b6121ce83611fe3565b9150611fc160208401611fe3565b600181811c908216806121f057607f821691505b6020821081141561221157634e487b7160e01b600052602260045260246000fd5b50919050565b634e487b7160e01b600052601160045260246000fd5b600063ffffffff8083168185168183048111821515161561225057612250612217565b02949350505050565b60006020828403121561226b57600080fd5b5051919050565b600060001982141561228657612286612217565b5060010190565b600067ffffffffffffffff8083168185168083038211156122b0576122b0612217565b01949350505050565b6000828210156122cb576122cb612217565b500390565b600082198211156122e3576122e3612217565b500190565b600083516122fa818460208801611f10565b7f746f6b656e2000000000000000000000000000000000000000000000000000009083019081528351612334816006840160208801611f10565b7f3c2f746578743e3c7465787420783d2231302220793d2234302220636c61737360069290910191820152671e913130b9b2911f60c11b6026820152602e01949350505050565b6000835161238d818460208801611f10565b7f616d6f756e74200000000000000000000000000000000000000000000000000090830190815283516123c7816007840160208801611f10565b7f3c2f746578743e3c7465787420783d2231302220793d2236302220636c61737360079290910191820152671e913130b9b2911f60c11b6027820152602f01949350505050565b60008351612420818460208801611f10565b7f637265617465645f74696d652000000000000000000000000000000000000000908301908152835161245a81600d840160208801611f10565b7f3c2f746578743e3c7465787420783d2231302220793d2238302220636c617373600d9290910191820152671e913130b9b2911f60c11b602d820152603501949350505050565b600083516124b3818460208801611f10565b7f6c6f636b65645f74696d6520000000000000000000000000000000000000000090830190815283516124ed81600c840160208801611f10565b7f3c2f746578743e3c2f7376673e00000000000000000000000000000000000000600c9290910191820152601901949350505050565b7f7b226e616d65223a20226c6f636b20230000000000000000000000000000000081526000835161255b816010850160208801611f10565b7f222c20226465736372697074696f6e223a20224e465420526576656e756520736010918401918201527f686172652c2063616e206265207573656420746f20726563656976652070617360308201527f7369766520696e636f6d65222c2022696d616765223a2022646174613a696d6160508201527f67652f7376672b786d6c3b6261736536342c00000000000000000000000000006070820152835161260a816082840160208801611f10565b61227d60f01b60829290910191820152608401949350505050565b7f646174613a6170706c69636174696f6e2f6a736f6e3b6261736536342c00000081526000825161265d81601d850160208701611f10565b91909101601d0192915050565b60006001600160a01b0380871683528086166020840152508360408301526080606083015261269c6080830184611f3c565b9695505050505050565b6000602082840312156126b857600080fd5b8151610ec281611eda565b634e487b7160e01b600052601260045260246000fd5b6000826126e8576126e86126c3565b500490565b6000826126fc576126fc6126c3565b500690565b634e487b7160e01b600052603260045260246000fd5b600081600019048311821515161561273157612731612217565b500290565b60006020828403121561274857600080fd5b8151610ec28161207b565b60008251612765818460208701611f10565b919091019291505056fe3c73766720786d6c6e733d22687474703a2f2f7777772e77332e6f72672f323030302f73766722207072657365727665417370656374526174696f3d22784d696e594d696e206d656574222076696577426f783d223020302033353020333530223e3c7374796c653e2e62617365207b2066696c6c3a2077686974653b20666f6e742d66616d696c793a2073657269663b20666f6e742d73697a653a20313470783b207d3c2f7374796c653e3c726563742077696474683d223130302522206865696768743d2231303025222066696c6c3d22626c61636b22202f3e3c7465787420783d2231302220793d2232302220636c6173733d2262617365223e4142434445464748494a4b4c4d4e4f505152535455565758595a6162636465666768696a6b6c6d6e6f707172737475767778797a303132333435363738392b2fa164736f6c6343000809000a73686f756c64206861766520612076616c696420746f6b656e20616464726573",
  "linkReferences": {},
  "deployedLinkReferences": {}
}